:020000040800F2
:100000000040002061020008410400084304000889
:1000100000000000000000000000000000000000E0
:10002000000000000000000000000000450400087F
:100030000000000000000000470400084904000818
:10004000B1020008B1020008B1020008B1020008C4
:10005000B1020008B1020008B1020008B1020008B4
:10006000B1020008B1020008B1020008B1020008A4
:10007000B1020008B1020008B1020008B102000894
:10008000B1020008B1020008B1020008B102000884
:10009000B1020008B1020008B1020008B102000874
:1000A000B1020008B1020008B1020008B102000864
:1000B000B1020008B1020008B102000851040008B2
:1000C00010B5064C2378002B07D1054B002B02D02E
:1000D000044800E000BF0123237010BDC0000020D1
:1000E00000000000242F0008044B10B5002B03D0A3
:1000F0000349044800E000BF10BDC04600000000F6
:10010000C4000020242F000802B4714649084900A9
:10011000095C49008E4402BC7047C04603B4714676
:10012000490840004900095A49008E4403BC704701
:10013000002243088B4274D303098B425FD3030A26
:100140008B4244D3030B8B4228D3030C8B420DD339
:10015000FF22090212BA030C8B4202D312120902C7
:1001600065D0030B8B4219D300E0090AC30B8B4205
:1001700001D3CB03C01A5241830B8B4201D38B03B3
:10018000C01A5241430B8B4201D34B03C01A524158
:10019000030B8B4201D30B03C01A5241C30A8B429B
:1001A00001D3CB02C01A5241830A8B4201D38B0286
:1001B000C01A5241430A8B4201D34B02C01A52412A
:1001C000030A8B4201D30B02C01A5241CDD2C3099C
:1001D0008B4201D3CB01C01A524183098B4201D318
:1001E0008B01C01A524143098B4201D34B01C01A03
:1001F000524103098B4201D30B01C01A5241C3087B
:100200008B4201D3CB00C01A524183088B4201D3E9
:100210008B00C01A524143088B4201D34B00C01AD5
:100220005241411A00D20146524110467047FFE741
:1002300001B5002000F006F802BDC0460029F7D045
:1002400076E770477047C046D0400B1CD1409C46B3
:10025000203AD340184352426346934018437047B4
:100260000D488546002103E00C4B5B584350043198
:100270000B480C4B42189A42F6D30B4A02E000237B
:1002800013600432094B9A42F9D300F097FA02F056
:100290001BFE00F00FF8FEE70040002004300008CD
:1002A00000000020BC000020C0000020780B0020CF
:1002B000FEE70000F0B59BB000AF00F0C3FA2023CA
:1002C0007B631433F81801F087FB80239B02BB612A
:1002D00018230024F8183C6301F0A0FE0121072335
:1002E0000326BB605B18F818FE603C617C6101F07E
:1002F000E1FD8021474D0905EA6947480A43EA6163
:10030000EB6904600B407B607B6880239B05436046
:10031000424BC36022230361023B436101F01EFF95
:1003200080216A69C9020A436A6101226B693C48FB
:100330000B40BB60BB68AB6980211343AB61AB6909
:1003400080251340BB612200BB6900F0D3FC8021F3
:1003500022008900324800F0CDFC8021902022004C
:100360004900C00500F0C6FC8021902022008900D1
:10037000C00500F0BFFC802190202200C900C0050C
:1003800000F0B8FCA0239B007B630123BB633333E5
:10039000F9182348FC633C6400F0EAFBE023DB002F
:1003A0007B6311239020BB632333F918C005FC63E2
:1003B0003C6400F0DDFB0123FB633333F9182D02AD
:1003C00017487D63BC633E6400F0D2FB154800F023
:1003D00057FA2900124800F087FCA04207D072B6F5
:1003E000114B124A1B68126882F308889847104C18
:1003F00000221049200002F0EEF90F49200002F01F
:1004000004FA0E49200002F0DFF9200002F006FA9B
:10041000FEE7C04600100240DC0000207FBB000069
:1004200000040048B80B0000044000080040000829
:100430000C0600201C000020800000203800002056
:100440007047FEE77047704710B500F00BFA10BD1B
:1004500010B5024801F06CF810BDC046300800200D
:10046000802170B5144C8902626988B00A436261C8
:10047000636990200B400193019BC0230025032654
:100480005B0103A9C005039304950595069600F04A
:100490006FFB8021E26909040A43E261E3692A00F3
:1004A0000B40029331001F20029B00F0F9F91F203E
:1004B00000F026FA08B070BD00100240010087234A
:1004C00010B59B00ED31FF31C05802F0CFF910BDDF
:1004D0001C234B43C318FC33DA69872310B59B00F8
:1004E000C05802F0F7F910BD1C234B43C3189A6B98
:1004F000872310B59B00C05802F026FA10BD872351
:1005000010B59B00C05802F09BFA10BD70B587244F
:100510000500A4000121005902F08FFA285902F0C9
:1005200069FA70BD7047704710B5104B104C2360CE
:10053000082363603833E3603E3B2361A360872375
:100540009B00E0500433C450200000F0D9FB00228F
:1005500018231100200001F025FA582300228021E1
:10056000200001F01FFA002010BDC046005C0040D2
:1005700030080020882310B59B00C05800F006FC0E
:10058000002010BD882310B59B00C05800F007FC68
:10059000002010BD10B514001A0023008824A40008
:1005A000005900F025FC002010BD882310B59B00E9
:1005B000C05800F00BFE002010BD882310B59B0032
:1005C000C05800F04DFE002010BD88239B00C3588A
:1005D00048B21C22002806DA7F2001404A439B18BB
:1005E0002A33187870474A439B18FF33D87AF9E7C3
:1005F000882310B59B00C05800F0E4FB002010BD1C
:1006000010B58824A400005900F098FE002010BD09
:1006100010B58824A400005900F038FD002010BD5A
:1006200000487047F4000020704700001223014882
:100630000B8070473C2F0008042302480B801230C7
:100640007047C0463C2F000810B5002452008A189D
:10065000914200D110BD030F092B05D830330B7028
:100660004C7000010231F3E73733F8E71A2370B515
:100670000B800B4B0B4C18680B4B1B68C0180028E9
:100680000BD00A4BA11C08221D68FFF7DDFF2100DB
:10069000042212312800FFF7D7FF200070BDC046AA
:1006A000ACF7FF1F00000020B4F7FF1FB0F7FF1FDB
:1006B00010B5044C0A000448210002F0A1FB200000
:1006C00010BDC046500A00208A2F000810B5044C07
:1006D0000A000448210002F093FB200010BDC04630
:1006E000500A0020A12F000810B5044C0A0004484D
:1006F000210002F085FB200010BDC046500A0020FA
:10070000B42F000810B5044C0A000448210002F080
:1007100077FB200010BDC046500A0020BF2F000804
:10072000002310B5934201D1080010BDC45CCC5425
:100730000133F7E70023322093705070D37000200C
:10074000704710B500F01EF9002010BD10B500F084
:100750002BF9002010BD00001FB50023009301936A
:10076000064B69460293172301A8039300F0B6F9DC
:10077000431E984180B205B000BDC046004000084D
:10078000F7B50E0004000D000192019AAB1B9A42CE
:1007900001D80020FEBD2268002329000220270086
:1007A00000F036F9002806D108CD3A6804349A42A0
:1007B000EBD00220EEE70120ECE700000121114B15
:1007C00011481A680A431A605A6802405A601A6847
:1007D0000E4802401A601A680D4802401A605A68B2
:1007E0000C4802400F205A60DA6A8243DA621A6BC0
:1007F000094802401A635A6B8A435A6300229A607E
:100800007047C046001002400CB8FF08FFFFF6FE1C
:10081000FFFFFBFFFFFFC0FF2CFEFCFF704710B582
:10082000040001F0F5FBFA218900FFF781FC00F0DC
:1008300071F8012000222100404200F031F8002030
:1008400010BD00001023064A10B5116800200B43AC
:100850001360FFF7E4FFFFF7E1FF002010BDC04683
:1008600000200240024A1368013313607047C046FB
:10087000500B0020014B18687047C046500B0020F9
:1008800037B50190FFF7F6FF019C0500631C5A1E67
:100890009341E418FFF7EEFF401BA042FAD337BDA7
:1008A00070B58901002814DA0F23C0B20340083B59
:1008B000114A9B089B009B18032210409040FC3279
:1008C0001500114085408140DC69AC432143D9616A
:1008D00070BD032583082840A840FC352E00074A38
:1008E0009B009B18C02286402940814092009C5862
:1008F000B44321439950EBE700ED00E000E100E054
:100900001F2318401E3B8340014A13607047C046B6
:1009100000E100E0094A431E012093420DD8C021A6
:10092000074A08485360036A09061B021B0A0B4367
:10093000036200200723906013607047FFFFFF00F1
:1009400010E000E000ED00E010210C4B30B5D8685D
:100950000022084205D00A480232C4692243C2611B
:100960000A000420D968014205D00121044C024349
:10097000E5692943E161DA6030BDC04600200240EC
:10098000580B0020054B01201A69120604D50020DF
:10099000034A5A60034A5A607047C046002002402A
:1009A00023016745AB89EFCD8023034A00201169FD
:1009B0000B4313617047C0460020024070B504002D
:1009C000FFF758FF01250600104B1A00D96829428D
:1009D0000FD12021D868084200D0D9601023D068F8
:1009E000184002D1D3685B0708D5FFF7ADFF01209F
:1009F00004E0611CEAD0002C01D1032070BDFFF798
:100A000039FF801B8442DFD2F7E7C0460020024056
:100A1000F0B585B0029203931B4B01911A7E04003E
:100A20000220012A2ED0012218481A76FFF7C6FFAD
:100A3000002824D12600012C02D0022C00D004264C
:100A40000024029803992201FFF7FEFB00220127F0
:100A50000D4B0F4DDA612B69019A3B432B6163000B
:100A60009B1880B218800948FFF7A8FF2B69BB4389
:100A70002B61002803D1E419E3B29E42E1D80022A1
:100A8000014B1A7605B0F0BD580B002050C3000092
:100A9000002002400022064BDA61064B043219693D
:100AA0000A431A61402219690A431A617047C04615
:100AB000580B0020002002400022064BDA61064B52
:100AC000023219690A431A614022586119690A43BE
:100AD0001A617047580B002000200240F8B5214EE3
:100AE0000500337E0F000220012B0CD0012333764A
:100AF0002B681D48012B12D1FFF760FF002803D09F
:100B0000012000233376F8BDFFF7C4FF1648FFF736
:100B100055FF0421154A13698B431361F1E7FFF771
:100B20004DFF0028ECD101235B423B606C68013033
:100B3000AB686A68DB029B189C42E2D22000FFF798
:100B4000BBFF0948FFF73AFF0221084A13698B43AC
:100B50001361002801D03C60D3E780231B01E41817
:100B6000E6E7C046580B002050C3000000200240BA
:100B7000F0B5564A0B688218541EA24189B00393FF
:100B8000002304320592039ADA4001D109B0F0BD86
:100B900001229A4094466446039A2240029200D170
:100BA00092E04A6801921022019E9643022E0DD1D6
:100BB00007240F271C40A400A740DA0892008218DF
:100BC000156ABD430F69A7403D4315620322140017
:100BD0005D00AC40E4430768013E27400497019F55
:100BE0003A40AA40049F3A430260012E0ED8CA68D8
:100BF0008668AA4026403243826062464668964331
:100C0000019AD206D20F9A4032434260C268144021
:100C10008A68AA401443019AC460D20054D50126C0
:100C20002B4A1D0094693443946192699C083240B8
:100C30000792079A274AA400A418A26894460322A0
:100C40001540AD000C32AA40674697439022D2056A
:100C50009446002260450DD01F4A944632006045FC
:100C600008D01E4E9218B04204D01D4E0132B04240
:100C700000D0059AAA403A43A2601A4A029C16681C
:100C8000029D019FE4433543FF0301D43500254015
:100C900015605668029D019F3543BF0301D435009E
:100CA000254055609668029D019F3543FF0201D49F
:100CB000350025409560D568029E019F2E43BF02F6
:100CC00001D425402E00D66001335CE700F0FFB769
:100CD00000100240000001400004004800080048E5
:100CE000000C00480004014000690840411E884192
:100CF000C0B27047002A01D0816170478162FCE771
:100D000070B504000120002C2BD0EA25FF35635D6F
:100D1000DBB2002B05D1F4225200A3542000FFF7D0
:100D20009FFB032300226355230011000126606806
:100D30002833824216D10021230008000933FF33F3
:100D40008A4218D10020012123689A1C9E1D50332D
:100D5000D187D087F08718800B4BD387631DD87756
:100D6000615570BD1A705E70D970D9601961596192
:100D700001321C33DDE719705870D870D8601861E3
:100D8000586101311C33DBE700BFFFFF802103689E
:100D9000090258331A8800200A431A807047F42148
:100DA00010B54900425C0223012A09D001220368E0
:100DB0009C1CE2879A1D0023D3870322E2874354B9
:100DC000180010BDF42210B55200835C040002200C
:100DD000012B09D00123A354002906D123688031B7
:100DE0004C3319800020A05410BD631DD977F9E75A
:100DF000F7B5050048B21C24002820DA7F260E40F3
:100E0000744328342C197F26E370F4233140C00F3B
:100E100060702170E2605B00E95C0220012900D172
:100E2000EFE00121E954E0782B68032814D82178F9
:100E30008A4E89005918FFF767F906500C4B4C434E
:100E40000934FF34DEE7088830408026B6000643C8
:100E500001E0088806400E802178814E8C46674666
:100E600088001818018831407E4E3743394301808D
:100E7000A07A7B4F2178BC460196002866D11E00DF
:100E8000607850360700A088002F2AD03288C90029
:100E9000591889188022D2008918012290430880AD
:100EA000227892009A181188480604D567460F40A8
:100EB0006D490F43178022786C4992009B181A885D
:100EC000114020224A40019911430A001A8094E0FF
:100ED00008883040C026F600B9E7088830408026F0
:100EE000F9E73788C900C919614F5918C91901278D
:100EF000B843088021783088C90009185D4818185F
:100F000009183E2A1CD95009D20601D1013880B2F5
:100F1000594A800210430880227892009A1811885A
:100F2000480404D5604601405448014311802278AA
:100F3000534992009B181A881140C0229201C1E7C0
:100F400050083A4200D001308002E4E78900591885
:100F50000A884C48454F10404B4A024318000A800B
:100F6000227850300188D200521880219A18C90086
:100F700052180121E6888E43168080262278008848
:100F8000D2009A1812183A48F6011218208988439C
:100F900010802278617892009A18002932D1118845
:100FA000314204D060460140344801431180227828
:100FB0002D4992009A181088460603D5664630409F
:100FC000084310806646227892009A1810883040B4
:100FD0000143118022782A4992009A18108808400B
:100FE000C02189014140019801431180227892007B
:100FF0009B181A88174007431F80F42300205B00CA
:10100000E854FEBD11881D48314203D06646314088
:1010100001431180227892009A1811884E0604D557
:1010200066463140104E3143118066462278920068
:101030009A181188314008431080227892009A183B
:1010400011880F4001990F43178022780C499200B4
:101050009B181A880A4001990A4337E78F89FFFFD6
:101060000F0F00008080FFFFC080FFFFBF8FFFFFDA
:1010700004040000060400000080FFFF80C0FFFFA2
:101080008FBFFFFF0F0E00008081FFFFF0B57F24B0
:101090002140633C27004F43C7193D000026FC3523
:1010A000FF37EA612B626E62BE727972AA6993425F
:1010B0002FD99B1A2B624C430419FF34E57C03683B
:1010C000002D29D11D0050352E88657AED00AD190F
:1010D000394C1C192D193E2A59D95409A4B2D206EB
:1010E00001D1013CA4B2354AA40214432C801C2235
:1010F00051434018FF30427A92009B181988304AB9
:1011000000201140C022920151402E4A0A431A8009
:10111000F0BD2E621A00CEE7A57A002D2AD11D005F
:1011200050352E88657A284CED00AD191C192D1903
:101130003E2A17D95409A4B2D60601D1013CA4B263
:101140001E4EA40234432C801C264E438619FF36C3
:10115000B47A002C23D11C00757A50342488ED0019
:101160002D19B5E75408A4B2D60701D50134A4B2AD
:10117000A402E8E7012DE7D11D00647A50352D88DF
:10118000E4001C196419104D64192280DCE754082E
:10119000A4B2D20701D50134A4B2A402A6E7012C5F
:1011A000A5D11C0050342588747AE4001C196419F8
:1011B000014D641922809AE7060400000080FFFFB9
:1011C0008FBFFFFF8080FFFF02040000F42310B5F3
:1011D0005B00C45C02000220012C21D00138D054F5
:1011E000CD3B48B2FF3B00281BDA7F240C40634311
:1011F00028330124D3189C707E342140C40F5C70C6
:1012000019701368114C00290FD119881048084033
:10121000104941400C431C80F42300205B00D05453
:1012200010BD4B430933FF33E3E7890059180B889E
:10123000002806DA08481840102343401C430C805D
:10124000EAE70648184080235B01F6E78080FFFF4D
:10125000BFBFFFFF10100000BF8FFFFF8FBFFFFF5A
:101260004AB270B51C230400002A32DA7F200840FD
:10127000434328330020E318D20F5A70F4229870A9
:101280007F30014019705200A15C7D3801291FD0C8
:101290000121A1541A7820685D78920017498218BC
:1012A000002D1AD015886E0604D5154E3540154E02
:1012B000354315801B789B00C3181A8812481040CC
:1012C0003022424011431980F42300205B00E05497
:1012D00070BD4B430933FF33CCE715886E0404D54A
:1012E000074E3540094E354315801B789B00C318C7
:1012F0001A8807481040C0229201E2E78080FFFF71
:101300000F0F0000C080FFFFBF8FFFFF80C0FFFFF7
:101310008FBFFFFF30B58024E40000198218080059
:1013200001335B08002B00D130BD447805782402DE
:101330002C43451AAC520230013BF3E7F8B57F2548
:101340000D401C210400080068432018826302003D
:10135000002601272932C3630664013A57701570CD
:10136000426B93422ED99B1AC363694361180B00E9
:101370000F0032331B7896B22837002B25D18A8D87
:101380003300896B2068FFF7C5FF23681A005032CD
:1013900011883A78D2009B18504A5B189B181E801F
:1013A0001C214D43651928352A78236892009B1823
:1013B00019884B4A0020114030225140494A0A43C3
:1013C0001A80F8BDC6631A00CFE73B7820689F00FB
:1013D0003F5A293109787F0645D5002937D10100C8
:1013E00050310988DB005B183F4941185B183E2AE1
:1013F00025D9510989B2D20601D1013989B23B4AB6
:101400008902114319801C236B43E3181A8E1C2791
:101410006F43E7193300B96BFFF77CFF3B002933BB
:101420001B782168002B4DD128373B789B00CB18C7
:101430001A882F4911402F4A0A431A80B0E75108F1
:1014400089B2D20701D5013189B28902DAE70129CF
:10145000D9D1010050310988DB00C3185B1822493B
:101460005B181A80CFE7002920D10100503109888C
:10147000DB005B18194941185B183E2A0ED9510947
:1014800089B2D20601D1013989B2184A89021143C1
:1014900019801C236B43E318DA8DB8E7510889B231
:1014A000D20701D5013189B28902F1E70129F0D1D2
:1014B000010050310988DB00C3185B1807495B182D
:1014C0001A80E6E7012B00D06AE728373A789200C5
:1014D0008B181A8806491140074AADE7020400003C
:1014E000BF8FFFFF8080FFFF060400000080FFFF2A
:1014F0000F0F0000C080FFFF80C0FFFF70B5802588
:10150000ED0040195C08821826000800002E07D163
:10151000640009191219DB0701D513880B7070BD1F
:10152000451AAD5A013E05702D0A45700230EDE7AF
:10153000F0B5036885B00633DB8F04001BB2002BC7
:1015400000DA61E023680633DA8F52050AD5DA8FB4
:10155000864920000A40DA87FEF7D8FF00212000E4
:10156000FFF730FC2368991DCA8F520403D5CA8F38
:101570007F480240CA87CA8F920403D5CA8F7D482C
:101580000240CA87CA8FD2040FD504210233DA8FF2
:1015900020008A43DA87784ADA87FEF7C4FF236897
:1015A00076490633DA8F0A40DA8723689A1DD18F8D
:1015B000090512D5D18F724802330140D187082125
:1015C000D88F0143D9870421D88F0143D987D38F7E
:1015D000DB0402D42000FEF7A5FF23680633DA8F70
:1015E000920506D5DA8F674920000A40DA87FEF7B0
:1015F00086FF23680633DA8FD20503D5DA8F624976
:101600000A40DA8705B0F0BD02AB9F1D00233B8086
:10161000206803AA831DDB8F9BB213801BB2002BB3
:1016200000DB8FE70F2316881E4000D0BCE010219E
:10163000138819400388002926D1544A1340038097
:10164000030050331A88230028331B78DB00C018AE
:101650004F4B8018C0180388A26B9B059B0D236419
:10166000D318A3632000FEF73FFF631DDA7F002A33
:10167000CED0E06B0028CBD18022D97F11432268E5
:101680004C321180D877C3E73B803A88120520D5C9
:10169000030050331A8884235B00E35C2100DB00E5
:1016A000C3189B183B4AED319B1822001B88093256
:1016B0009B059B0DFF329361FF319288FFF71EFF60
:1016C00022683549138820000B401380FEF7F6FE90
:1016D0009EE73A8812B2002A9ADA2F4A2500134070
:1016E0000380030050331A8884235B00E35C0935D0
:1016F000DB00C3189B18274AFF359B181B889B05E6
:101700009B0DAB6107D0AA882969FFF7F7FE2B690B
:10171000AA699B182B6100212000FEF7D9FE2268E0
:101720001C49130050331B88E8685118C9183E281B
:1017300013D943099BB2C00601D1013B9BB21748A4
:101740009B0203430B801188154B1940C0239B015A
:101750005940144B0B4313805AE743089BB2C00710
:1017600001D501339BB29B02ECE7C046FFFBFFFFB4
:10177000FFBFFFFFFFDFFFFF00BDFFFFFFEFFFFF2A
:10178000FFF7FFFFFFFDFFFFFFFEFFFF0F8FFFFFD4
:1017900002040000060400008F0F00000080FFFF1D
:1017A0008FBFFFFF8080FFFFB300C11801930B883C
:1017B0003B803A8812B2002A3CDA734A13400B800D
:1017C0001C21714361180B000200FF33DD7C503295
:1017D0005B7A002D73D11288DB00C3189B186B4A0B
:1017E0009B181D88AD05AD0D07D00B00FC31FE33F5
:1017F000DA89C9692B00FFF781FE1C2108007043BC
:1018000020180200FC32536A5B195362D3699C466C
:10181000AC446346D361136A002B03D092699542AE
:1018200000D37BE00B007343E318FF33597A2000A9
:10183000FEF74EFE80223B88134200D1E8E6206886
:10184000B300C3181A8852490A401C217143611819
:101850001A800B00020032331D7850320A3B002DF3
:1018600063D11B781288DB00C3189B18494A9B1868
:101870001B889B059B0D0B6403D08A8D896BFFF73A
:1018800049FD22681300503318881C235E43A619B3
:10189000310028310B78DB00D3183E4A1B189B1807
:1018A0001A88B36B9205920D32649A18F36BB26387
:1018B00009782000002B64D1FEF716FEA8E69D00F3
:1018C0001288DB002D5AC3189B186D041CD5314AB1
:1018D0009B181D88AD05AD0D07D00B00FE331A8A8D
:1018E000FC312B00C969FFF709FE1C237343E31881
:1018F000FF335B7A22689B00D3181A88264911406F
:10190000264A0A431A8078E7204A9B181D88AD05AD
:10191000AD0DEAD00B00FE335A8AE1E7FF30417A81
:1019200062462000FFF7B2FB84E71B7812889D0017
:101930002D5ADB00C3189B186D0619D5154A9B1844
:101940001B889B059B0D0B6403D0CA8D896BFFF729
:10195000E1FC1C237343E31828331B7822689B00A7
:10196000D1180B880C4A1A400D4B13430B8088E7A3
:10197000064A9B181B889B059B0D0B64E9D00A8EB9
:10198000E4E7FFF7DBFC43E68F0F000006040000EE
:101990000F8FFFFF020400000F0F0000C080FFFF49
:1019A00080C0FFFF30B51C240D060AD57F252940D5
:1019B000614328314118002A07D18A728B800020A8
:1019C00030BD61430931FF31F4E70122CB801B0CAC
:1019D0008A720B81F3E70000F0B5036885B005005B
:1019E000DB0733D42B689B0700D58AE02B681B07E5
:1019F00000D5CAE02B685B0700D5EDE02B68DB065D
:101A00001AD56A69BC4C0423012A00D059E1616BE4
:101A100002260B436363636B1A436263FEF72AFF7C
:101A20000700636B334200D144E1F821626BAB697C
:101A30008A43DB00134363632B689B0600D567E191
:101A4000696A002900D0A4E1002018E00C21AA4C0A
:101A500062680A40042A0BD063680B40082B10D13F
:101A6000C02263685202134080225202934208D17E
:101A700023689B03B6D56B68002BB3D1012005B05A
:101A8000F0BD6B68012B13D1802322685B021343E6
:101A90002360FEF7EFFE80260700B602236833427C
:101AA000A0D1FEF7E7FEC01B6428F7D90320E6E7C4
:101AB000002B16D12368914A8026134023602368A7
:101AC0008F4AB60213402360FEF7D4FE0700236856
:101AD000334200D186E7FEF7CDFEC01B6428F6D95D
:101AE000E4E7052B05D180232268DB021343236042
:101AF000CAE72368814A134023602368804A134061
:101B0000C6E70C227C4C636813420BD06368134019
:101B1000082B15D1C02263685202134080221202A2
:101B200093420DD123689B0702D5EB68012BA5D109
:101B3000F82122682B698A43DB001343236055E7B1
:101B4000EA680123002A0FD022680226134323608B
:101B5000FEF790FE070023683342E9D1FEF78AFEC4
:101B6000C01B0228F7D9A1E7226802269A43226007
:101B7000FEF780FE07002368334200D136E7FEF708
:101B800079FEC01B0228F6D990E7EA6901235A4C76
:101B9000002A10D0626A022613436362FEF76AFECF
:101BA0000700636A334200D024E7FEF763FEC01BE0
:101BB0000228F6D97AE7626A02269A436262FEF741
:101BC00059FE0700636A334200D113E7FEF752FE65
:101BD000C01B0228F6D969E780220021464C520535
:101BE000E3690091134208D1E3691343E361E369B8
:101BF00013400393039B012300938027414E7F00F2
:101C000033683B4206D0AB68012B13D1226A1343E1
:101C1000236230E033683B433360FEF72BFE0190D4
:101C200033683B42EFD1FEF725FE019BC01A6428C2
:101C3000F6D93BE70122002B14D1236A02279343F4
:101C40002362236A033293432362FEF713FE0600E6
:101C5000236A3B4225D0FEF70DFE2B4B801B98429A
:101C6000F6D923E7052B0BD1216A013B0B432362F5
:101C7000236A1A432262FEF7FDFD022706000DE0EB
:101C8000236A934304222362236A9343C0E7FEF747
:101C9000F1FD1D4B801B984200D907E7236A3B42A8
:101CA000F5D0009B012B00D0A8E6E369174A13404A
:101CB000E361A3E6FEF7DEFDC01B022800D8B0E614
:101CC000F4E6053203D1626B9A436263ADE6626B60
:101CD0000226134301226363636B93436363FEF73E
:101CE000C9FD0700636B334200D1A5E6FEF7C2FDD4
:101CF000C01B0228F6D9D9E600100240FFFFFEFF04
:101D0000FFFFFBFF0070004088130000FFFFFFEFA4
:101D10000C21464C62680A408A4209D063680B4035
:101D2000082B0ED1C022636852021340934208D19F
:101D3000636BDB0300D483E62B6A012B00D09DE6A6
:101D40007EE62B6A002B11D08026636B760233432C
:101D50006363FEF78FFD0700636B334200D06FE6CD
:101D6000FEF788FDC01B0228F6D99FE6636B304A58
:101D7000802613406363FEF77DFD07007602636BE8
:101D8000334200D15CE6FEF775FDC01B0228F6D990
:101D90008CE60C22254C63681340082B00D16DE6BD
:101DA0002368244A1340236002292FD1FEF762FDE5
:101DB00080260700B6042368334221D10F22E36A4C
:101DC00093432A6B1343E362A96AEB6A62680B438D
:101DD000194980250A4013436360802322685B040D
:101DE00013432360FEF746FD0600AD0423682B4233
:101DF00000D029E6FEF73EFD801B0228F6D955E605
:101E0000FEF738FDC01B0228D5D94FE6FEF732FD9C
:101E100080250600AD0423682B4200D114E6FEF7AE
:101E200029FD801B0228F6D940E6C046001002407A
:101E3000FFFFFEFFFFFFFFFEFF7FC2FF70B5194CE3
:101E400088B010222100684601F062F8210004AD3C
:101E500010221031280001F05BF80C22124E73683A
:101E60001A40082A04D00C2A1AD1104808B070BDB4
:101E70000F206A46990C0140545CF26A0240A95C4A
:101E8000C0228020520213404002834201D1084800
:101E900002E09342FBD10548FEF74AF96043E5E7CB
:101EA0000348E3E76A2F000800100240006CDC02E0
:101EB00000127A00F7B501224F4C06002368019109
:101EC00013408B421FD33268930728D4D3072ED4F4
:101ED0000123226801991A40914200D27EE03368C2
:101EE000464C5B0700D580E0FFF7A8FF6368444AD3
:101EF0001B061B0FD35CD840424B18600020FEF736
:101F00008EFC00200AE02368019993430B43236071
:101F100023681340019A9A42D5D00120FEBDF020DB
:101F200036494B688343B06803434B60CEE7726821
:101F3000324D012A1AD12B689B03EED503216B6821
:101F40008B4313436B60FEF795FC73680700012B0E
:101F50001CD10C226B681340042BB9D0FEF78AFC0D
:101F6000294BC01B9842F4D90320D7E7022A03D19A
:101F70002B689B01E2D4D0E7032A03D16B6BDB0310
:101F8000DCD4CAE72B689B07D8D4C6E7022B0BD159
:101F90000C226B681340082B9AD0FEF76BFC1A4B8F
:101FA000C01B9842F4D9DFE7032B11D00C226B68D9
:101FB000134200D18CE7FEF75DFC134BC01B984227
:101FC000F4D9D1E7FEF756FC0F4BC01B9842CBD893
:101FD0000C226B6813409342F4D179E722689A434C
:101FE000226022681A4298D179E76368074A134051
:101FF000F2681343636077E700200240001002405C
:10200000522F00085400002088130000FFF8FFFF43
:10201000014B18687047C04654000020F0B50368B3
:1020200085B00500DB0328D580220021444C5205F1
:10203000E3690091134208D1E3691343E361E36963
:1020400013400393039B0123009380273D4E7F00A1
:1020500033683B4241D0C022236A920013403A4E7B
:102060004DD1236A1E406B681E43009B2662012BE4
:1020700003D1E369354A1340E3612B68DA0706D5DB
:1020800003202F490A6B8243A86802430A639A0718
:1020900006D52B492E480A6B0240E86802430A63C2
:1020A0009A0606D5102026490A6B82432869024306
:1020B0000A639A0306D5802021490A6B8243A869E6
:1020C00002430A6300205B0517D540211C4A136BAD
:1020D0008B4369690B4313630FE033683B43336001
:1020E000FEF7C8FB019033683B42B4D1FEF7C2FB58
:1020F000019BC01A6428F6D9032005B0F0BD6968B9
:102100000A409342ADD08023226A206A11005B020C
:1021100003432362236A0F48314003402362216254
:10212000D3079ED5FEF7A6FB07000222236A1342BF
:1021300097D1FEF79FFB084BC01B9842F5D9DBE710
:102140000010024000700040FFFCFFFFFFFFFFEFA8
:10215000FFFFFCFFFFFFFEFF881300008022104BF3
:10216000120519690A431A611A690E490A401A616F
:1021700042680368134382681343C26813430269C9
:1021800012041343084A53601168436907481B024D
:1021900001400B431360602311680B4313607047C9
:1021A00000100240FFFFFFF7006C0040FFC0FFFF80
:1021B0001B23038000487047580000200020704710
:1021C000002070470A23038001481C307047C04636
:1021D0005800002010B50024062907D887239B004B
:1021E000034CC3582100186800F00AFE200010BDFF
:1021F0000C0500208623F7B580229B00C458D2002E
:10220000A35C0500042B6AD18123DB00E1584C4E0E
:10221000002953D12378002B14D1A359012B3FD18E
:1022200081230020DB008022A051E0500323D20054
:10223000A354444AA054444AA054444AA054444A93
:10224000A354FEBD212B10D1A359052B28D1A3786F
:10225000E2781B0212049B1862789B1822791206FE
:102260009B188222D200A350DAE7412B18D1A35940
:10227000052B15D1A078E37800021B04C018637801
:10228000C01823791B06C0188223DB00E050F53B01
:10229000FF3BEB58DB6898470028C1D00220D0E70D
:1022A00081220023D200A351A3506A4669461370CD
:1022B00028000133D38000F099FDB1E70129AFD99F
:1022C000244BA259C9188223DB00E3588902C9189C
:1022D00087239B00C35820001B699847DCE7002038
:1022E000072BAED11C4B184FE0541C4B174E197DD9
:1022F00004230B4013498C461549834207D006231B
:10230000A3546246A054E055A055635499E70820B1
:10231000A0546246A354E355A3556054280000F02E
:1023200082FA87239B00EB589B689847BFF34F8F37
:102330000B4A0C4BDA60BFF34F8FC046FDE7C04637
:102340000C04000002040000030400000404000068
:1023500005040000FEFF3F000704000058000020B5
:102360000400FA0500ED00E070B586268122002405
:10237000B6008359D2009C500A4A80219C50022208
:10238000C9005A54084905005C5408495A54872327
:102390009B00C3589B689847A859FEF745F9AC5174
:1023A000200070BD0C0400000104000005040000C2
:1023B00010B504008320C000FEF732F986239B008D
:1023C000E050002801D1022010BD0023114A12491B
:1023D0008350043A8150083A8350104A8021835038
:1023E0000F4AC9008354022242540E4943540E49F5
:1023F00043540E4943540E4943540E4942540E4A25
:10240000835487239B00E3585B6898470028DAD100
:10241000DAE7C04614040000004000080C04000085
:10242000070400000104000002040000030400008F
:10243000040400000504000006040000F8B586232B
:1024400060220E789B000500C458164000D177E149
:10245000202E26D14878062800D991E1FDF75EFEAE
:10246000410107003C00A500FF001A011F01802365
:10247000CA88DB00002A1AD0E35C022B01D0052BAE
:1024800011D181234988DB00E150C04B8021E2500B
:102490000323C9006354BE4928006354210000F09F
:1024A000E2FC002616E0280000F0A0FCF9E7E25C60
:1024B000052A01D0022AF6D10121B64A0026A154EC
:1024C0000622E254B44BE654B44BE654B44BE65403
:1024D000AF4BE2543000F8BD8020CA88C000002A0B
:1024E00058D08123205CDB00022801D009284CD180
:1024F00080264888F600E050A44BA74FE250A74B37
:102500009C46A74B002816D10221032A00D8073188
:10251000A15562460026E655A654E6549C4B03227C
:10252000E15421232100637020332670A37028001A
:1025300000F083FCCEE701281AD00921A15500261E
:10254000E6556746E655E654914BE154954B21001C
:10255000C0188223DB00E3588002C01887239B0049
:10256000EB585B699847894B0100E25892B2DEE76D
:102570000F226046A2550026E6552654E654844BA9
:10258000E254280000F032FCA4E700267F4AA6505F
:10259000E650F6E702238049235462547F4962548F
:1025A0007F4962547A4963547BE78023DB007E498C
:1025B000E25C6618032A07D0062A33D006223100CF
:1025C000280000F03AFC6CE7704A7349A2588C4628
:1025D000724F7348002A1CD00422E2540023635433
:1025E000E35523546A4BE25487220333E1589200A7
:1025F0000833002908D12078412805D1AA589769C5
:102600003200E058B847D9E7AA580121976932004B
:10261000F7E70521E1546346E254E25522545C4B4E
:10262000E154CBE75B4AA25C012A09D10721E154BE
:10263000594BE2540023594AA354594AA354EEE794
:10264000002ABBD15949097D4907B7D50221E15478
:10265000514BE254514BE254514BE254DFE7802698
:10266000F600A35D4A494C484C4F4D4D4E4A0A2B4B
:102670000AD1083BA3550026A6542654E6556655B4
:1026800063544B4BE65425E70A23A3550E26A65464
:102690000026F2E78023DB00E118012290E7802288
:1026A0000121D200A05C0B00092803D89B239B00CA
:1026B000C340DB4300260B4200D00BE70223A354A8
:1026C000394AA654344AA654344AA654344AA65425
:1026D0002F4AA354364BE6540233E6502B4BE650B8
:1026E000F8E680220120D200A65C0300092E03D860
:1026F0009B239B00F340DB43034011D10220A054F5
:10270000294AA354244AA354244AA354244AA35430
:102710001F4AA054264AA3541218A3501B4AA35080
:102720001022224B5E7D164006D0280000F07BF878
:10273000280000F073F8B4E64888FEF7A1F8C9E66F
:102740004B780A2B13D00B2B15D0062B18D14B88A6
:102750001B0A212B08D1CB881A1C092B00D909226E
:10276000124992B212312BE73200310028E7114BA7
:102770000122E118DBE68E78002E01D10D4BAEE789
:10278000280000F033FB0226A4E6C0460C0400003B
:102790000504000007040000020400000304000018
:1027A00004040000FEFF3F00010400005800002068
:1027B0000604000014040000002070470020704749
:1027C0000020704700207047002902D087239B001B
:1027D000C1500020704710B50223002813D0852374
:1027E0009B00C458002C01D00024C450002902D002
:1027F00084239B00C150FE2301215B00C154027061
:10280000FDF792FE0023180010BD0223002903D01B
:1028100085239B00C15000231800704710B5FDF7B9
:10282000A9FE002010BD852310B504009B00C358ED
:1028300001795B6898472000FDF7A4FE002010BDD9
:1028400085239B00C35810B5002B01D1022010BD79
:102850001B6898470028F9D1F9E7852310B59B003C
:10286000C3585B689847002010BD000082239B007E
:1028700070B5C5180400280000F0A4FAFA2301225C
:102880005B00E250124BE25A163BE2501033E15C1F
:10289000EA3BFF3B0B40012B0FD0002B07D0022B54
:1028A00010D07F2320009943FDF77FFE03E029002D
:1028B000200000F0DFF8002070BD2900200000F0AB
:1028C000F7F9F8E72900200000F00EFAF3E7C04618
:1028D0000E02000070B504001500002927D1FA236C
:1028E0005B00C358032B0FD10530FF308368C268EB
:1028F00093420BD99B1A83609A4200D91A0092B274
:102900002900200000F0BFFA002070BD85239B0045
:10291000E3581B69002B06D0FE225200A25C032A5A
:1029200001D120009847200000F0B5FAECE785239C
:102930009B00C3589B69002BE6D0FE225200825CAC
:10294000032AE1D19847DFE7F8B50D000400110034
:10295000002D41D1FA235B00C358022B0ED1C2696E
:10296000066AB24213D9921BC26192B200F073FAA6
:102970002B002A0029002000FDF74AFE80239B003F
:10298000E25C012A01D10022E2540020F8BD8769EF
:1029900031003800FDF752FC0D1E0CD1BE420AD8A2
:1029A000FC267600A3599F4205D20A00200000F0C1
:1029B00052FAA551DCE785239B00E358DB68002B26
:1029C00006D0FE225200A25C032A01D120009847C3
:1029D000200000F06CFAD1E785239B00C3585B69A7
:1029E000002BD2D0FE225200825C032ACDD12900D6
:1029F0009847CAE7002270B5040011004023FDF794
:102A0000C9FD23004025FC335D6100222B0080219D
:102A10002000FDF7BFFDFE2301225B002562E2548A
:102A20001C33E358002B06D085239B00E358217903
:102A30005B6820009847002070BD0174002070473B
:102A4000FE2310B55B00C35C032B06D185239B00DE
:102A5000C358DB69002B00D09847002010BD10B58B
:102A600004008021FDF7A1FD00212000FDF79DFD60
:102A700010BD000073B5040048780D00092800D986
:102A80008DE0FDF74BFBE00001018C00F3008C00B2
:102A90007E000A008C00CF00A1004988080A013896
:102AA000062800D97BE0FDF72FFB04202F7A7A550A
:102AB000600084236A469B00E358207C1B68911DBC
:102AC00098476B469E1D3188002900D17AE0EA883C
:102AD000002A77D00B1C914200D9131C01009AB236
:102AE0003380200000F0A9F96CE08523227C9B0054
:102AF000E358002A06D19B6A6A46901D9847022334
:102B00004370DEE7DB6AF7E7C9B2052919D88422EA
:102B100008009200237CA258FDF7F6FA03090B0D7A
:102B20000F1152686946180006319047C9E792684C
:102B3000F8E7D268F6E71269F4E75269F2E79269BA
:102B4000F0E785236A469B00E35806329B6B200022
:102B50009847B6E7237C002B21D185236A469B004A
:102B6000E358901D5B6B9847ABE7237C002B16D195
:102B700085236A469B00E358901D1B6B98470723EB
:102B8000BEE78B88002B0AD1CB88002B07D1FE260D
:102B90004D887F3376001D40A35D032B03D12000B9
:102BA000FFF75DFF0EE0FF235B00E55429002000E6
:102BB000FDF71EFD200000F06EF90223002D00D16C
:102BC0000123A355002076BD8978384D297001294D
:102BD000E5D8FE235B00E25C022A0DD0032ADED199
:102BE000002915D102222000E2546160FFF735FE72
:102BF000200000F050F9E5E70029F9D00121032277
:102C00006160E2542000FFF71BFE0228F0D1C6E706
:102C100061680129ECD0C9B22000FFF71EFE2978B7
:102C20006160EFE7CA88012AB9D1FE235B00E35C4B
:102C3000022B03D0032BB2D1211D52E70023210028
:102C4000A36008314DE7FE235B00E35C023B012BF0
:102C5000A5D80123E36081239B00E358002B01D01A
:102C60000323E360210002220C313AE74B88012B59
:102C7000A8D181229200A35085239B00E35829000C
:102C80009B6820009847B3E7FE235B00E35C023BB0
:102C9000012B00D983E74B88012B00D092E78123D9
:102CA00000229B00E2501033E8E7C0460B060020EC
:102CB000FE2370B55B00C35C04000D00032B0FD135
:102CC0000B79012B0CD885239B00C3589B68984730
:102CD000EB88002B02D1200000F0DDF8002070BD51
:102CE0002000FFF7BCFEF9E770B50D00040060207E
:102CF0008A882B78D1B20340202B08D1F533FF33DB
:102D0000E35829009B6820009847002070BD6B782D
:102D1000012B21D0002B2FD0032BF6D1FA33FF3318
:102D2000E35C022B43D0032B03D02000FFF797FE78
:102D3000EBE76B88002B04D14B0602D02000FDF797
:102D400034FC85239B00E35829009B6820009847AA
:102D5000200000F0A0F8D8E7FE235B00E35C022B24
:102D600025D0032BE1D16B88002BCED14B06EFD0C1
:102D70002000FDF722FCE4E7FE235B00E35C022B6E
:102D800015D0032BD1D17F250D402D01130614D56D
:102D9000143520006519FDF718FC002810D0012318
:102DA0002B6002222900200000F047F8ADE74B0617
:102DB000ABD02000FDF7F9FBA7E70535FF35E8E7C5
:102DC0002860EEE70B7803704B784370CA788B78F5
:102DD00012029B1843804A790B7912029B18838058
:102DE000CA798B7912029B18C380704710B5040012
:102DF0008021FDF7DAFB00212000FDF7D6FB10BD96
:102E0000002330B5984201D130BD2B00C45C5D1C5D
:102E1000002CFAD1DBB25B00023313800B7003236A
:102E20004B70013B0578002DEED05A1CCD54D2B228
:102E300002330130DBB28C54F4E71300FA2210B5F0
:102E40000224520084500A008361C3610021FDF70F
:102E5000D7FB002010BD10B513000A000021FDF7BC
:102E6000CFFB002010BD1300FA2210B5032452003E
:102E700084500200FC32D36013610A000021FDF788
:102E8000C7FB002010BD10B513000A000021FDF79C
:102E9000BFFB002010BDFA2304225B0010B5C25016
:102EA00000231A001900FDF7ABFB002010BDFA2328
:102EB00005225B0010B5C25000231A001900FDF76F
:102EC000A7FB002010BD000070B500260C4D0D4C76
:102ED000641BA410A64209D1002600F023F80A4D75
:102EE0000A4C641BA410A64205D170BDB300EB5878
:102EF00098470136EEE7B300EB5898470136F2E702
:102F0000FC2F0008FC2F0008FC2F000800300008F0
:102F1000002310B59A4200D110BDCC5CC4540133DB
:102F2000F8E70000F8B5C046F8BC08BC9E467047FC
:0C2F3000F8B5C046F8BC08BC9E467047CF
:102F3C001201000200000040830411DF00020102B4
:102F4C00030104030904000000000000000001025A
:102F5C000304060708090000000001020304020331
:102F6C000405060708090A0B0C0D0E0F10100102C0
:102F7C00030405060708090A0B0C0D0E0F10485523
:102F8C006C616D70204669726D7761726520557049
:102F9C00646174650053544D6963726F656C65634D
:102FAC0074726F6E6963730044465520436F6E668E
:102FBC0069670044465520496E74657266616365A5
:102FCC000040496E7465726E616C20466C6173686A
:102FDC002020202F307830383030303030302F38BF
:102FEC002A30324B612C35362A30324B67000000C8
:042FFC00E9000008E0
:04300000C100000803
:103004001A0300000000000000000000000000009F
:103014000000000000000000000000002D06000871
:1030240039060008CD060008B10600086D06000840
:10303400E906000805070008CD2F0008430700082B
:103044004D070008590700088107000821070008F8
:103054003507000800127A0009021B00010102C0B2
:10306400320904000000FE01020609210BFF0000E2
:10307400041A01000A0600020000004001000000DA
:10308400B1230008692300083D240008F521000845
:10309400C5270008C1270008C1210008BD21000878
:1030A400B9270008BD270008B1210008B121000894
:0C30B400B1210008C5210008D52100084A
:04000005080002618C
:00000001FF
