:020000040800F2
:10400000004000204DC1000831BA000833BA000852
:1040100000000000000000000000000000000000A0
:1040200000000000000000000000000035BA000899
:10403000000000000000000037BA000839BA00088C
:104040009DC100089DC100089DC100089DC10008D8
:104050009DC100089DC100089DC1000845BA000827
:1040600051BA000861BA00089DC100089DC100084E
:104070009DC100089DC100089DC1000871BA0008DB
:104080009DC100089DC1000891BA00089DC10008AB
:104090009DC100089DC100089DC100089DC1000888
:1040A0009DC100089DC100089DC100089DC1000878
:1040B0009DC100089DC100089DC10008B1BA00085B
:1040C00010B5064C2378002B07D1054B002B02D0EE
:1040D000044800E000BF0123237010BDA0020020AF
:1040E000000000000CC20008044B10B5002B03D0E8
:1040F0000349044800E000BF10BDC04600000000B6
:10410000A40200200CC2000802B47146490849000C
:10411000095C49008E4402BC7047C04603B4714636
:10412000490840004900095A49008E4403BC7047C1
:10413000002243088B4274D303098B425FD3030AE6
:104140008B4244D3030B8B4228D3030C8B420DD3F9
:10415000FF22090212BA030C8B4202D31212090287
:1041600065D0030B8B4219D300E0090AC30B8B42C5
:1041700001D3CB03C01A5241830B8B4201D38B0373
:10418000C01A5241430B8B4201D34B03C01A524118
:10419000030B8B4201D30B03C01A5241C30A8B425B
:1041A00001D3CB02C01A5241830A8B4201D38B0246
:1041B000C01A5241430A8B4201D34B02C01A5241EA
:1041C000030A8B4201D30B02C01A5241CDD2C3095C
:1041D0008B4201D3CB01C01A524183098B4201D3D8
:1041E0008B01C01A524143098B4201D34B01C01AC3
:1041F000524103098B4201D30B01C01A5241C3083B
:104200008B4201D3CB00C01A524183088B4201D3A9
:104210008B00C01A524143088B4201D34B00C01A95
:104220005241411A00D20146524110467047FFE701
:1042300001B5002000F006F802BDC0460029F7D005
:1042400076E770477047C046D0400B1CD1409C4673
:10425000203AD34018435242634693401843704774
:104260008446101C62468C46191C634600E0C0461A
:104270001FB501F04BFB002801D40021C8421FBD2F
:1042800010B501F0A5FA4042013010BD10B501F0A3
:104290003DFB002801DB002010BD012010BDC04601
:1042A00010B501F033FB002801DD002010BD012016
:1042B00010BDC04610B501F0C5FA002801DC002091
:1042C00010BD012010BDC04610B501F0BBFA00289A
:1042D00001DA002010BD012010BDC0468446081C34
:1042E0006146FFE71FB500F08BFB002801D40021D9
:1042F000C8421FBD10B500F01DFB4042013010BD8B
:1043000010B500F07DFB002801DB002010BD01206E
:1043100010BDC04610B500F073FB002801DD002081
:1043200010BD012010BDC04610B500F029FB0028CB
:1043300001DC002010BD012010BDC04610B500F00A
:104340001FFB002801DA002010BD012010BDC0466F
:104350009E2110B5C905041CFFF7F0FF002803D10A
:10436000201C00F04BFE10BD9E21201CC90500F052
:10437000A9FC00F043FE80231B069C466044F2E744
:10438000F0B5C6464E024702760A7B0A4400C50FC6
:10439000F7004800984600B5240E2A00DB00000E06
:1043A000C90FBC468D4267D0221A002A00DCA5E066
:1043B00000283AD1002F00D193E0511E002900D0EF
:1043C000BCE00124DB1B5A0146D59B019E0930004D
:1043D00001F04CFF05388640844200DD9DE0041B5F
:1043E000320020200134E240041BA64033005E1E50
:1043F000B341002413435A0704D00F221A40042A61
:1044000000D004335A0129D50134FF2C00D181E0BA
:104410002A009B015B0AE4B25B02E405580AD2075A
:104420002043104304BC9046F0BDFF2CE3D0802114
:104430003800C904084384461B2A00DD82E020209E
:104440006146D140821A604690400200501E82416F
:104450000A439B1A5A01B8D45A07CED1DE082A0063
:10446000FF2C3AD1002E00D1AEE08023DB03334392
:104470005B025B0AFF24CFE7211A002952DD0028E6
:1044800031D0FF2CB7D080203E00C0040643B44694
:104490001B2900DDAAE020266046C840711A664646
:1044A0008E4031004E1EB14101435B185901D3D5F6
:1044B0000134FF2C00D187E0012278491A405B08C3
:1044C0000B40134397E7002C00D0A7E0002B00D04F
:1044D000B6E03B1E62D10026002273025B0AE4B202
:1044E0009AE7140087E7002F4DD0481E002857D1C7
:1044F000634401245A01AFD50224DDE7002A24D108
:10450000621CD2B2012ADEDDDE1B720135D5FE1A35
:104510000D005CE72A0000237EE73300604A241A7E
:10452000134068E7002963D1611CC8B201284EDD41
:10453000FF2949D063445B080C005CE7FF2A41D0A7
:104540000A0079E701229B1A84E7002C1DD0FF287E
:1045500022D08024E404524223431B2A00DD8AE057
:104560001C002025D440AA1A93405A1E934123438D
:1045700062460400D31A0D0025E7002E00D026E77E
:1045800000220024A9E70C0035E7002B4DD0D243D0
:10459000002AEDD0FF28E0D16346FF240D002AE772
:1045A000FF290FD0010073E7002B61D0FF24002FFB
:1045B00000D120E780224146D203114202D01642A8
:1045C00000D13B00FF2416E7FF24002324E7002C42
:1045D000EAD1002B58D0002F00D10CE763445A01D8
:1045E00000D439E72E4A0C00134004E701215CE7B0
:1045F000002C1ED1002B40D0C94300290BD0FF282E
:1046000036D01B2947DC1C002026CC40711A8B4079
:10461000591E8B4123436344040047E7002B18D104
:104620003B1E2DD00D00FF24E5E63B0004000D00ED
:10463000E1E6FF281CD08024E40449422343E0E75C
:10464000002F00D1D7E6DE1B72011FD5FB1A0D002B
:10465000D1E6FF24002F00D1CDE680224046D203D0
:104660001042AFD01642ADD13B000D00FF24C2E690
:104670006346FF24BFE601237AE73B000400BAE665
:1046800080260022F603F0E63B00B4E6331E00D09D
:10469000E2E6002221E70123BDE7C046FFFFFF7DE0
:1046A000FFFFFFFBF0B557464E46DE464546E0B5F8
:1046B00044024300C60F83B00F1C640A1B0EB246AF
:1046C00053D0FF2B27D08022E400D20414437F2252
:1046D000524290469844002399469B467D027800BA
:1046E000FB0F6D0A000E009324D0FF2846D08023D4
:1046F0000021ED00DB041D437F384746381A4F4642
:104700000F43BF00B9463300009A874F53404A46D3
:10471000BA5801939746002C4ED108239946F73397
:104720009846FD3B9B467D027800FB0F6D0A000E0C
:104730000093DAD1002D26D1002001213300009A08
:104740007A4F53404246101A4A460A439200BA58DA
:104750001D009746009B2C009A468B465B46022B19
:1047600031D15346FF21002438E0002C17D1042317
:1047700099460023984601339B46AFE7FF20002D62
:104780000BD10221DAE7280001F070FD431F9D40A4
:1047900076235B42181A0021AFE70321ADE7200022
:1047A00001F064FD431F9C4076235B421B1A984630
:1047B000002399469B4691E70C239946F33398468C
:1047C000FC3B9B468AE7032B00D1A5E05546012B15
:1047D00000D081E00123002100242B406402C905A0
:1047E000600ADB070843184303B03CBC9046994677
:1047F000A246AB46F0BD80240023E403FF21EDE791
:10480000FF210024EAE70123591A1B2966DD019ADA
:10481000134000210024E1E78023DB031C4238D051
:104820001D4251D01C436402640A3300FF21D5E7C6
:1048300063016C01A3423BD21B26002101380125F4
:104840001F0049005B00002F01DB9C4201D81B1BAD
:104850002943013E002EF3D11C00631E9C410C43F2
:1048600001007F310029CEDD630704D00F232340F0
:10487000042B00D00434230103D501002C4B8031DC
:104880001C40FE290DDD0123019AFF211340002465
:10489000A4E78023DB031C436402640A3300FF2186
:1048A0009CE70123019AA401640AC9B2134095E769
:1048B0001B1B1A260121C2E7009B8B469A46002447
:1048C0004CE76302E5D500258024E4032C43640211
:1048D000640A009BFF2181E70195C1E723002020A6
:1048E000CB40411A8C40611E8C411C43630704D0AD
:1048F0000F232340042B00D00434630105D501238A
:10490000019A01211340002468E70123019AA401C0
:10491000640A1340002161E78023DB031C43640227
:10492000640A5346FF2159E744C2000884C20008C4
:10493000FFFFFFF770B5420045024E024C00C30F67
:104940006D0A120E760A240EC90F0120FF2A06D026
:10495000FF2C03D0A24201D1B54206D070BD002D7C
:10496000FCD1FF2CFAD1002EF8D18B4206D00120C9
:10497000002AF3D12800451EA841EFE70020EDE70B
:10498000F0B5420045024C02C30F48006D0A120EFA
:10499000640A000EC90FFF2A1ED0FF2821D0002A6A
:1049A0000AD16E426E41F6B200280FD1002C0DD113
:1049B0000020002D09D005E0002801D1002C01D0F5
:1049C0008B4211D0012158420843F0BD002EF7D090
:1049D000012001390843F8E7002DDED002204042D3
:1049E000F3E7002CDBD0F9E78242EBDC04DBA542E5
:1049F000E8D80020A542E8D20121581E0843E4E788
:104A0000F0B542004D024C004602760A120EC30F6A
:104A10006D0A240EC90FFF2A16D0FF2C18D0002AC9
:104A20000AD170427041C0B2002C15D0002805D0C8
:104A3000012001390843F0BD002C13D0994214D055
:104A400001205B421843F6E70220002EF3D1E4E791
:104A50000220002DEFD1E2E7002DE7D10020002E4B
:104A6000E9D0EDE7002DE9D1EAE7A24206DCDFDB81
:104A7000AE4203D80020AE42DAD3DCE7012049423F
:104A80000843D8E7F8B557464E464546DE46E0B5FA
:104A90004702460088467F0A360EC40F002E47D0D4
:104AA000FF2E24D0FB008027FF041F4300239946DC
:104AB0009A467F3E43465D025800DB0F6D0A000EAA
:104AC000984643D0FF283BD0EB0080250022ED0420
:104AD0001D437F383618731C41469B464B46614048
:104AE00013430F2B64D875489B00C3589F46002F73
:104AF00042D108239946063BFF269A46DAE741460B
:104B0000022A28D0032A00D1CEE0012A00D0ACE04E
:104B1000114000200022CCB24002D205400AE40736
:104B2000104320433CBC90469946A246AB46F8BD94
:104B3000002F15D104239946033B00269A46B9E776
:104B4000FF200222002DC5D00322C3E7002D19D17A
:104B500000200122BEE70124FF220C400020DBE7F9
:104B6000380001F083FB7626431F9F4000237642E6
:104B7000361A99469A469DE70C239946093BFF262B
:104B80009A4697E7280001F071FB431F9D4076236A
:104B90005B42181A00229DE780200024C003FF22F8
:104BA000BAE73D005246ABE73D0021005246A7E779
:104BB0003B0C9C462A04120C2B0C140060466546E4
:104BC0003F043F0C7C4342435D437B43270C9B18CF
:104BD000FF18BA4203D980235B029C466544240433
:104BE0003A04240C121993015C1EA3413F0C920E4F
:104BF0007D191A43AD0115432B0104D501235E46EF
:104C00006A081D40154332007F32002A25DD6B07FC
:104C100004D00F232B40042B00D004352B0103D5E7
:104C20003200274B80321D40FE2A94DC0124A8016B
:104C3000400AD2B20C406FE78020C003074207D081
:104C4000054205D128434002400A4446FF2263E75B
:104C500038434002400AFF225EE70124A31A1B2BBF
:104C600005DD0C400022002056E75E46CBE72A0017
:104C70002020DA40C31A9D402B005D1EAB41134338
:104C80005A0704D00F221A40042A00D004335A01D4
:104C900004D5012401220C4000203DE701249B01A2
:104CA000580A0C40002237E780200124C003284323
:104CB0004002400A0C40FF222EE7C046C4C2000852
:104CC000FFFFFFF7F0B54F46D64646464400C0B555
:104CD000C20F47024802400A844666467B0A4800E3
:104CE000C90F9A46240E1500DB00000E8946F60017
:104CF000FF2800D18FE001214F464F4039009142FB
:104D000066D0221A002A00DC9DE000283DD1002E4A
:104D100000D18BE0511E002900D0B5E001249B1B7F
:104D20005A0144D59B019F09380001F09FFA0538CC
:104D30008740844200DD96E0041B3A0020200134C5
:104D4000E240041BA7403B005F1EBB41002413430D
:104D50005A0704D00F221A40042A00D004335A0103
:104D600027D50134FF2C00D179E001229B015B0A99
:104D7000E4B22A405B02E405580AD20720431043FC
:104D80001CBC90469946A246F0BDFF2CE0D0802185
:104D9000C9040E431B2A7BDC31002020D140821A3B
:104DA0009640721E96410E439B1B5A01BAD45A0775
:104DB000D0D10122DF082A40FF2C33D1002F00D1AF
:104DC000A8E08023DB033B435B025B0AFF24D1E7BF
:104DD000211A00294CDD00282AD0FF2CB8D08020D1
:104DE000C00406431B2900DDAFE030002027C84087
:104DF000791A8E40711E8E4106439B195901D6D5F2
:104E00000134FF2C00D185E001227A491A405B0869
:104E10000B4013439CE7002E00D070E76BE73B1E6E
:104E2000C5D100227B025B0AE4B2A3E714008FE73E
:104E3000002E4DD0481E002857D19B1901245A013D
:104E4000B5D50224E0E7002A25D1621CD2B2012A9E
:104E500072DD9F1B7A0135D5F71A0D0064E7012238
:104E600000232A4086E73B00634A241A13406FE779
:104E700000296CD1611CC8B201284EDDFF2949D040
:104E80009B195B080C0063E7FF2A41D00A0081E709
:104E900001269B1B89E7002C1CD0FF2821D08024F1
:104EA000E404524223431B2A00DD96E01C00202527
:104EB000D440AA1A93405A1E93412343F31A040084
:104EC0000D002DE7002F00D02EE700220024A9E7D7
:104ED0000C003DE7002B58D0D243002AEED0FF282B
:104EE000E1D13300FF240D0032E7FF2910D001008B
:104EF00078E7002B6ED0FF24002E00D128E7802217
:104F00005146D203114203D06146114200D1330011
:104F1000FF241DE7FF2400232CE7002CE9D1002B00
:104F200063D0002E00D113E79B195A0100D43EE74D
:104F3000314A0C0013400BE7002C1ED1002B2FD15F
:104F4000002E4FD033000D0002E7012655E7002C5C
:104F50001FD1002B43D0C94300290BD0FF2839D0E3
:104F60001B2944DC1C002027CC40791A8B40591E99
:104F70008B4123439B19040040E7002B1AD1002EDC
:104F800024D180270022FF031BE7330004000D001B
:104F9000DEE6FF281ED08024E40449422343DFE7F5
:104FA000002E00D1D4E69F1B7A0100D437E7F31A14
:104FB0000D00CDE6FF24002E00D1C9E68022504628
:104FC000D2031042A4D060461042A1D133000D009C
:104FD000FF24BDE63300FF24BAE601236EE7330069
:104FE0000400B5E6002700221CE73300B0E60123E9
:104FF000C0E7C046FFFFFF7DFFFFFFFB410243000C
:10500000C20F490A1B0E00207E2B0DDD9D2B0CDCF0
:10501000802000040143952B0ADC9620C31AD94056
:105020004842002A00D108007047034BD018FBE724
:10503000963B9940F4E7C046FFFFFF7F70B500281C
:1050400030D0C317C4185C40C50F200001F00EF922
:105050009E231B1A962B0DDC9622D21A94402A000E
:105060006402640ADBB26402DB05600AD2071843FB
:10507000104370BD992B19DC9922D21A002A29DD20
:1050800094402200144C1440510704D00F210A40D0
:10509000042A00D00434620113D4A401640ADBB2F0
:1050A0002A00E0E7002200230024DCE7052221009B
:1050B000121AD140B922D21A9440621E94410C4374
:1050C000DAE7054B2A001C409F23A4011B1A640A3F
:1050D000DBB2C8E72200D5E7FFFFFFFB10B5041ED7
:1050E00027D001F0C3F89E231B1A962B0ADC9622C8
:1050F000D21A94406402640ADBB26402DB05600ADF
:10510000184310BD992B17DC9922D21A002A27DDEB
:1051100094402200134C1440510704D00F210A4040
:10512000042A00D00434620112D4A401640ADBB260
:10513000E3E700230024E0E7B9222100D21A9140DE
:105140000A00511E8A410521091ACC401443DBE7AD
:10515000044B1C409F23A4011B1A640ADBB2CCE75A
:105160002200D7E7FFFFFFFBF0B557464546DE4676
:105170004E46E0B54C000E0387B0834692461D00B4
:105180008046360B640DCF0F002C4FD06F4B9C42E6
:1051900035D08023420F1B04F60013433343994656
:1051A000C30098466A4B00269C4600236444039340
:1051B0002B031B0B9B466B00ED0F50465B0D0195BF
:1051C0005ED0624A934253D05A46D1008022400FAB
:1051D000120402430A4393465246D1005C4A944665
:1051E000002263443800684084460290E41A164363
:1051F0000F2E00D9B4E0574BB6009B599F460300D1
:10520000334399466CD10023984602330826039312
:10521000CEE7CB464146039A0197022A65D1019B0E
:105220004A4C9C460023002298466BE0030033431F
:1052300099464ED0002E00D1BCE1300001F016F8A6
:1052400003000B3B1C2B00DDACE11D22D31A5A4698
:105250000100DA4008398E401300334399465B461B
:105260008B40984600233C4C0026241A03939FE76A
:1052700051465A46114329D1002293460232B1E7E2
:10528000594601431ED05B46002B00D19EE1584693
:1052900000F0ECFF03000B3B1C2B00DD8FE1020054
:1052A0005946083A91408B461D21CB1A5146D940A8
:1052B0000B0059460B4351469B469140264B00221A
:1052C0001B1A8FE7002301229B468BE751460322DE
:1052D00088E700239846013304260024039367E7F8
:1052E0000323B14603930C2662E7032A00D15CE254
:1052F000019B012A00D0E4E113409C4600230024D6
:105300000022984600211203130B0A0D12051A43BE
:105310002305124C40462240134362465B00D207ED
:105320005B081343190007B03CBC90469946A2465F
:10533000AB46F0BD002380229C4612039846034CE6
:10534000E0E70023014C00229846DBE7FF0700005E
:1053500001FCFFFF04C300080DFCFFFFFFFF0F80EF
:10536000D94500D939E100D134E1002346464D4604
:105370009A46013C5B460A0E1B021A430B02170CAD
:10538000039313041B0C3900280090460193FEF789
:10539000CFFE0200019B83465A4328003900914604
:1053A000FEF74CFF350C09040D43A9450DD95B46AA
:1053B0004544013BA84500D93AE1A94500D837E169
:1053C00002235B429C464544E3444B46EB1A3900BA
:1053D00018000493FEF7ACFE019B0500434339001F
:1053E00004989946FEF72AFF330409041B0C0B436B
:1053F000994509D943446A1E984500D91AE199454F
:1054000000D817E1023D43444A469B1A5A4612040B
:105410002A4303999346100C0A0C914609045A46F4
:10542000090C4E460D001204120C454305915143E0
:105430007243704352190E0CB218954203D980255D
:105440006D02AC466044150C09041204090C2818BE
:105450005218834200D2CEE000D1C8E01D1A534654
:105460009E1AB24592415242AB1A9A46984500D1D3
:1054700017E139001800FEF75BFE019B050043436E
:10548000390050460493FEF7D9FE04980B04310C02
:105490001943884209D941446B1E884500D907E168
:1054A000884200D804E1023D4144049BCB1A180015
:1054B00039000493FEF73CFE019B824643433900CA
:1054C00004980193FEF7BAFE01980B043104090C0D
:1054D000194388420DD953464144013B884500D9C0
:1054E000E8E0884200D8E5E002235B429C46414464
:1054F000E244019B2D04CE1A51462943059D4F4697
:105500002A000B04080C1B0C5A4345437B43784389
:105510005B19170CFB189D4203D980256D02AC4620
:1055200060441D0C12041B04120C28189B188642A0
:1055300000D293E000D18EE001231943A04BE31881
:10554000002B00DC99E04A0700D09EE05A46D201C9
:1055500006D55A469B4B1A4080239346DB00E3183E
:10556000994A934268DD0123029A984C1A4000231D
:10557000944698460022C5E680224B461203134209
:105580000AD05B46134206D11A431203120BAC46F3
:1055900088468E4CB6E64B461A431203120BBC46A5
:1055A0008A4CAFE603005A46283B9A4000239146B6
:1055B000984657E6584600F059FE203040E6030072
:1055C0005246283B9A400021934677E600F04EFE73
:1055D00020305FE6884500D2C7E64B46DE075D080F
:1055E00043465B081E434346DB079A46C2E6002556
:1055F000924500D333E7039E5946B446E244B24590
:10560000AD416D424544EB180139984507D29842A7
:1056100000D97FE000D1BCE01D1A8B461FE79845FA
:10562000FAD1039D5545F2D943468B461D1A16E71C
:105630009B46CAE61500E7E65A46C90852070A43E0
:105640005B0590465C0D5A460123029952021940AF
:10565000120B8C4656E6002B00D16FE746444A1EDB
:10566000B04529D91100864200D065E7039A9342DC
:1056700000D061E762E7012149420120C21A382ABD
:1056800021DD029B03409C4638E60F220A40042A93
:1056900000D15BE70A00111D9142924152429344AE
:1056A00054E7474BE318002BE5DD01225242F2E7B5
:1056B0001D00FAE69A461CE7B04239D86ED01100B8
:1056C0003AE702933AE71F2A3CDC20239B1A0C009E
:1056D0005846994098404B1E99415B46D440D34070
:1056E000204308431A00430709D00F230340042B2B
:1056F00005D00100081D88429B415B42D21813026D
:105700003AD50123029A01241A4000239446984670
:105710000022F7E5022149428C46039DE344AC4652
:10572000E244AA45AD416D424544ED182D1A96E676
:105730008A1E03994D008D428941494241447618A1
:1057400003958FE71F204042C31A5846D8400300F4
:10575000202A28D040205D46821A954029434A1EBF
:1057600091411943072300220B4009D00F23002247
:105770000B400800042BBDD1010053075202120B4D
:10578000C9081943012388460299002419408C4610
:10579000B8E55245BED88B46002560E6039D9D4284
:1057A000C6D3110062E70025D8E780225B461203CA
:1057B0001A43019B1203120B9C468846034CA1E539
:1057C000FF030000FFFFFFFEFE070000FF070000D1
:1057D000F0B54F464646D6465C00C0B51F03DB0F0A
:1057E0009A46174B0E034D0084468046360B6D0DCE
:1057F000C90F91463F0B640D01209D4208D09C4289
:1058000001D0A5420BD01CBC90469946A246F0BDE3
:1058100063463343F7D1AC42F5D13A43F3D101208B
:10582000BE42F0D1C845EED1514507D0002DEAD196
:1058300063461E433000461EB041E4E70020E2E725
:10584000FF070000F0B54546DE4657464E46E0B538
:105850001F033D0B2C4F0E034C00AB465D008446EE
:10586000360B640DC90F90466D0DDB0FBC422AD07C
:10587000254FBD422DD0002C0FD13043070081466B
:1058800078427841C0B2002D17D15F463A4314D117
:105890004B460020002B0AD006E0002D02D15846CE
:1058A000024301D0994218D04842012108433CBC30
:1058B00090469946A246AB46F0BD0028F2D00120A2
:1058C000013B1843F3E737000743D1D002204042A1
:1058D000EDE75F461743CED0F8E7AC42E4DC03DAED
:1058E000481E01210843E2E75E45DDD806D00020CE
:1058F0005E45DCD20123481E1843D8E7C445D3D8FF
:105900000020C445F6D3D2E7FF070000F0B54E46AD
:105910004546DE4657465C00E0B51F03DB0F99465F
:105920002A4B0E034D00C90F8446360B6D0D8B4676
:1059300090463F0B640D9D4220D0244B9C4222D0C8
:10594000002D12D1304343424341DBB2002C1FD023
:10595000002B0CD04B460120013B034318003CBCFC
:1059600090469946A246AB46F0BD002C16D0CB45DA
:1059700017D05B46594201230B43EFE73100022366
:105980000143EBD1D9E7390002231143E6D1D7E730
:105990003A43DDD100230028E0D0EAE73A43E6D1DC
:1059A000E7E7A542E5DC05DBBE42E2D807D00023ED
:1059B000BE42D3D25946012301390B43CEE7C44539
:1059C000D7D80023C445F5D3C8E7C046FF07000079
:1059D000F0B557464546DE464E46E0B50C039846C0
:1059E0004E00230B87B0070092469B46760DCD0FE5
:1059F000002E6BD06D4B9E4235D080245B46420F0B
:105A00002404DB0014431C43C3009946684BA3469F
:105A10009C46002300276644029343461C035A0019
:105A2000DB0F5046240B520D984600D176E05F4BB9
:105A30009A426DD08023410F1B040B435C49E40064
:105A40008C461C43C300002062444146B61869409E
:105A5000721C0191944607430F2F00D9B0E0554ABC
:105A6000BF00D25997465B460343994600D087E072
:105A700000239B46023308270293CEE74246019259
:105A8000022867D0032800D10EE2012800D062E18D
:105A9000002300240022994601990140CDB2002143
:105AA00012030B0D120B1B051343434A240513402D
:105AB0001C436400ED0764082C434846210007B0EE
:105AC0003CBC90469946A246AB46F0BD034399467E
:105AD0004FD05B46002B00D189E1584600F0C6FB51
:105AE00003000B3B1C2B00DD7AE11D22D31A3A0088
:105AF00001005C46DA4008398C4013008F40234394
:105B00009B46B94600232D4E0027361A029384E7A0
:105B1000534623432AD10024022096E753462343C9
:105B200020D0002C00D157E1200000F09FFB0300A3
:105B30000B3B1C2B00DD49E11D21CB1A5146020015
:105B4000D9405346083A944093400C431B4A121ADA
:105B500000207AE70125019B144C1D400023002200
:105B600099469CE70024002201206EE7534603205B
:105B70006BE700239B4601330427002602934CE782
:105B8000032381460C27029347E780220023002548
:105B900012039946054C82E75C464B4602986FE734
:105BA0005C464B46019502986AE7C046FF07000035
:105BB00001FCFFFF44C30008FFFF0F800DFCFFFF47
:105BC0004A464946170C1A0C1B041B0C0804190002
:105BD000000C41431500884619007D437943039525
:105BE00089462900150045434D44029545462D0C34
:105BF000AA46029D5544A94506D98A4680214902F4
:105C00008946CA4451460391290C0491414609042E
:105C10002D04090C88462900250C24044144240C39
:105C20000591210041438846210079438A46684313
:105C3000414650448146080C48446F43824503D98D
:105C40008021490289464F44010C89463900494464
:105C5000029141460F0404993F0C88460004C01984
:105C600080444146049159460F0C0904090C8846AA
:105C700059438A4639005143894641464A43514671
:105C8000090C8B467B43D2185A44934203D9802394
:105C90005B029B46D94451460904090C8A46414699
:105CA00061437C43130C12044B445244A1468A4680
:105CB0003C0041466C434D4351464D440F0C7D1909
:105CC000A94503D98021490288464444049F039989
:105CD000B84641448B4683458041414288465146FF
:105CE00008042F04000C3F185846029910188946E2
:105CF000904292414F44BA46524299469346C2441A
:105D0000D144CB448F42BF41C245894199459B4113
:105D1000934592417F4249422D0C52420F435B42D0
:105D200013437F19FF185B463C19DB0D059A64028B
:105D30001C43430213435D1EAB415A46C00D03434F
:105D400052021343E20156D501205A08034013437F
:105D5000E207134364085A48604400284DDD5A079F
:105D600009D00F221A40042A05D01A1D9A429B41DD
:105D70005B42E4181300E20104D58020514AC000C0
:105D800014406044504A904200DDE3E60125DB0800
:105D900062071A436402019B9146220B4405640D7D
:105DA0001D407CE6802259461203114208D014425D
:105DB00006D122431203120B45469946434C6EE628
:105DC0005B461A431203120B404C68E6030054462C
:105DD000283B9C400023B9E600F048FA2030A6E6B4
:105DE0000300283B9F400023BB4699468AE600F00B
:105DF0003DFA203074E6B446ADE701252A1A382A68
:105E000006DD019B00241D4000230022994646E642
:105E10001F2A21DC20252000AD1A1E00AB40A8401F
:105E2000D6405D1EAB4130431843D440430709D0F0
:105E30000F230340042B05D00300181D98429B41FB
:105E40005B42E418230221D50125019B01241D405A
:105E500000230022994622E61F2521006D42281AC0
:105E6000C1400800202A1DD05F35AA1A9440234360
:105E70005C1EA341072503431D400022002D09D0CD
:105E80000F2200241A401800042AD6D10300650707
:105E90006402220BDB082B4301259946019B002459
:105EA0001D40FCE50024E2E7802201251203224385
:105EB00001991203120B0D409946044CEFE5C046C0
:105EC000FF030000FFFFFFFEFE070000FF070000CA
:105ED00070B5002830D0C317C4185C40C50F20002F
:105EE00000F0C4F9174B184A1B1AD21A1F2A18DDE2
:105EF000164AD21A9440002224035B05240B5B0D42
:105F00000021100024030A0D240B12052243104C1B
:105F10001B05224013435B00ED075B082B43190070
:105F200070BD210091400A000B21081AC4405B0596
:105F30002403240B5B0DE3E700250023002400224B
:105F4000DEE7C0461E040000330400001304000016
:105F5000FFFF0F804100090E4B1C70B5DBB24602FB
:105F6000750AC40F012B14DDE0239B006D07360B6F
:105F7000CB1800210A0D280012051C4D32435B0589
:105F80002A405B0813435B00E4075B0823431900C6
:105F900070BD002914D1002D1ED0280000F066F934
:105FA0000A281CDC0B232A001B1ADA4003001533D5
:105FB0009D400F4B12031B1A5B05160B5B0DD8E7B8
:105FC000002D06D0320B802636036D071643094B91
:105FD000CFE7084B0026CCE700230026C9E70300E3
:105FE0002A000B3B9A400025E3E7C046FFFF0F80E5
:105FF00089030000FF070000F0B54C00640D0B039F
:10600000621C450F5B0A52052B43C90FC500520D98
:10601000012A28DD3A4AA618FE2E1BDC002E3EDDA2
:1060200080010200501E82416D0F2A43DB001343A2
:106030005A0704D00F221A40042A00D004338022C9
:10604000D2041A405AD00136FF2E03D09B015B0ABE
:10605000F4B201E0FF2400235802E405400AC90716
:1060600020430843F0BD002C07D01D43F2D0802010
:10607000DB0080040343FF26DAE72B4303D005232C
:10608000DB08FF2C03D05B025B0AE4B2E4E7002BE1
:1060900032D08020C00303435B025B0ADCE732009E
:1060A000173214DB80221E2712041343BF1B1F2F3D
:1060B0000FDC144A944664442A00A5402E00A340F5
:1060C000751EAE41FA40334313430026B0E7002467
:1060D000D5E702225242961B1A00F240202F09D027
:1060E000094884466444A3402B435D1EAB4100260F
:1060F00013439DE70023F7E70023ADE73400BFE734
:1061000080FCFFFF82FCFFFFA2FCFFFF0300C00F2B
:106110005A005B02F0B5C003120E5C0AFF2A37D0AA
:10612000002A26D0150080237F3D1B041C432B0032
:106130000E334FDB2C4B26001E4007D001335F0887
:10614000BE4242D0294BE4199C4229D8002919D0DB
:106150000F2D29DC2B0018330ADB2B000E3328DB34
:106160002B000E339B029BB2640B1B19184380B2A9
:10617000F0BD002CFCD080237F251B041C436D4206
:106180001A4BD8E7102DE5DD194B184380B2EFE725
:106190000029EDD0002C12D1F823DB011843E7E7EA
:1061A0007E3A64081500D1E7F823DB01184380B27A
:1061B000DEE70E235B425D1BEC400023D4E79B0D22
:1061C0000343FC20C0011843D2E701262700B74350
:1061D0001F40B7E72B00193304DB1600034B663E64
:1061E000F340A8E7014BA6E7FF1F0000FFFFFF00F9
:1061F000FF7F000070B54304C40B8005E407DB0E8D
:10620000850D1F2B12D0002B09D1002D0CD028009A
:1062100000F02CF80300153B9D4015231B1A70332A
:10622000DB056D035B191C43200070BD0029F6D00F
:10623000FF236D032C43DB051C43F5E710B501215B
:10624000FFF764FF10BDC04610B50121FFF7D2FF74
:1062500010BDC04610B50021FFF758FF10BDC04665
:1062600010B50021FFF7C6FF10BDC0461C21012359
:106270001B04984201D3000C10391B0A984201D329
:10628000000A08391B09984201D30009043902A207
:10629000105C40187047C04604030202010101016E
:1062A000000000000000000010B5040002F04EF8ED
:1062B000FA218900FDF73CFF00F0CCFA0120002212
:1062C0002100404200F08CFA002010BD1023064A45
:1062D00010B5116800200B431360FFF7E5FF05F0D0
:1062E0005DFA002010BDC04600200240024A13683B
:1062F000013313607047C046C8120020014B186874
:106300007047C046C812002037B50190FFF7F6FF6E
:10631000019C0500631C5A1E9341E418FFF7EEFF31
:10632000401BA042FAD337BD002373B5032101936C
:10633000036804009A680A40012A07D119681142CB
:1063400001D0002076BDDA681204FAD49968194A9F
:10635000114208D010230120626C13436364A36CC4
:106360000343A364EEE7012299680A439A60124B43
:1063700012491868FDF7DCFE0190019B002B15D136
:10638000FFF7BCFF0125060023681B682B42D8D10C
:10639000FFF7B4FF801B0228F6D91023626C01209E
:1063A00013436364A36C2B43A364CBE7019B013BC2
:1063B0000193E2E7170000803802002040420F00FE
:1063C000F8B504000120002C72D0636C002B06D1BC
:1063D00022004032A3642000137005F0F7F9636CCB
:1063E000DB0600D579E0042223689868104000D0CD
:1063F00073E0626C4249114002220A430321626445
:106400009A680A40012A00D06DE01968114202D151
:10641000DA68120467D5DA683A49256A0A40DA6010
:10642000A2696F039103E269D2031143626B013ADF
:10643000561EB2411603E268114322690F43022A35
:1064400000D10420226B616A52003A433243024376
:10645000012904D1002D2CD1802149020A43C220F8
:10646000A16AFF30814202D0E06A01430A438020E2
:10647000D96840051143D960A16B814202D0481E02
:10648000062807D8072558692940A8435861586944
:1064900001435961DB681C490B409A4211D100202D
:1064A0000322A064636C93431A00012313436364C3
:1064B000F8BD2020656C28436064A06C0143A16492
:1064C000CDE71222636C012093431A00102313437B
:1064D0006364A36C0343A364EAE71023626C0120A6
:1064E00013436364E4E71821DA688A43A1680A4326
:1064F000DA601969626889008908114319618AE7BD
:10650000FDFEFFFF1902FEFFE7FF3F83F7B50368BB
:1065100004009B680F00019202205B0730D4260024
:1065200040363378012B2BD001233370E369012BE4
:1065300027D1636C164A00251A4080235B00134361
:106540006364E06B134BA56435708362124B216862
:10655000C362124B03631C230B604A680C3B13435A
:106560004B600123CA681343CB603A004031019B62
:1065700000F02AFA04232800226891680B439360F4
:10658000FEBD2000FFF7D0FE0028F9D1D1E7C046BC
:10659000FEF0FFFFA1650008136600081F660008F3
:1065A0005022436A10B5596C11422AD1596CB1324C
:1065B000FF320A43C0215A641A680901D0680842B0
:1065C00012D1196A00290FD1116809070CD59168F9
:1065D00049070DD40C205168814351605A6C0B4916
:1065E000114001220A435A64180004F079F910BDE1
:1065F0002022596C0A435A640122996C0A439A6416
:10660000F2E7DB6B1B6B9847F1E7C046FEFEFFFF2E
:10661000704710B5406AFFF7FBFF10BD704740237D
:10662000406A10B5426C134343640423826C1343E5
:106630008364FFF7F3FF10BDF7B500230400019357
:106640004034237805000220012B2BD001232A6837
:10665000AE6B9068237040075AD430484F680D687D
:1066600087423FD0AB4018008023976A5B053843D0
:1066700090629E420FD0013E062E0CD98B680721F6
:1066800050690840834206D050690B4088435061EE
:106690005069034353612B00103B022B03D90020A8
:1066A00000232370FEBD1E4A80231168102D15D0D3
:1066B000112D15D05B040B431360102DEFD1194B36
:1066C00019491868FDF734FD0A2358430190019BCE
:1066D000002BE4D0019B013B0193F8E71B04EAE7A0
:1066E000DB03E8E7AB40916A99432B00103B9162D2
:1066F000022BD4D80A4B1A68102D05D0112D05D0C5
:106700000A490A401A60CAE70949FAE70949F8E75D
:106710002022696C18000A436A64C1E70110000076
:10672000082701403802002040420F00FFFFFFFE13
:10673000FFFF7FFFFFFFBFFFF8B50600403633784D
:1067400004000220012B42D001230321337023686F
:106750009A680A40012A05D11968114238D1DA68CD
:10676000120435D4626C1D49114002220A430321F0
:106770006264DD68DA688A43DA608022996812060A
:106780000A439A60FFF7BAFD070023689A68002A57
:106790000EDB0322D96815400D43DD60636C0020D9
:1067A00093431A00012313436364002333700EE004
:1067B000FFF7A4FDC01B0228E7D91222636C012059
:1067C00093431A0010231343636400233370F8BD0E
:1067D0002023626C012013436364E6E7FDFEFFFFA4
:1067E00070B58901002814DA0F23C0B20340083BBA
:1067F000114A9B089B009B18032210409040FC32DA
:106800001500114085408140DC69AC432143D961CA
:1068100070BD032583082840A840FC352E00074A98
:106820009B009B18C02286402940814092009C58C2
:10683000B44321439950EBE700ED00E000E100E0B4
:106840001F2318401E3B8340014A13607047C04617
:1068500000E100E0094A431E012093420DD8C02107
:10686000074A08485360036A09061B021B0A0B43C8
:10687000036200200723906013607047FFFFFF0052
:1068800010E000E000ED00E010B504000120002C55
:106890000DD02379DBB2002B03D16371200004F00B
:1068A000E1FF022300202371013B2061237110BD11
:1068B00013B50024006801940190A14207D1019909
:1068C00008318A180192019A0020136016BD0199BF
:1068D0001431F6E730B5437904000220012B10D0C3
:1068E00020710848256890402B68834318000B6886
:1068F00049680B43934003432B60002001236071E0
:10690000237130BDFE0F000070B5022443790200F0
:106910002000012B16D0013805008D40136814713A
:106920001E68507135431D6000290CD119683A3436
:106930002140A14202D15968084358600123002038
:106940001371507170BDF0201968800301408142BD
:10695000F4D159680C435C60F0E7000070B50400A6
:106960000120002C28D002232068A51CEB770268A8
:10697000124BA1681A4063680B43E1680B4321691D
:106980000B4361690B43A1690B43E1690B4313435B
:1069900003600B4B1421C018FDF7CAFB094B8000A4
:1069A0002064E36300200123A062E062206360634F
:1069B000A063E418EB77E07770BDC0460FC0FFFF1F
:1069C000F8FFFDBF00000240F0B5461CF57F022431
:1069D000012D26D00125F5770519AC46ED7F00275E
:1069E000EDB2012D29D16646F477046887632668E5
:1069F000076CAE43BD402660C66B7560636043683C
:106A00000568102B0FD1A260E160C36A2268002BD9
:106A10000CD00E2313432360012300242A68134360
:106A20002B602000F0BDA160E260EEE70A23134373
:106A30000422236023689343EDE7F777F1E7F8B585
:106A400004273E00016CC26B8E40156803681C6809
:106A50002E420DD03C420BD01968890602D4196829
:106A6000B9431960C36A5660002B19D0984717E0E4
:106A700002273E008E402E4213D03C4211D01968AE
:106A8000890606D40A241968A14319600121C31993
:106A9000D97756600022431CDA77836A9342E5D1A6
:106AA000F8BD082637008F403D42F9D03442F7D078
:106AB0000E251C68AC431C6001231C008C405460F4
:106AC000821C8363D3770022C318DA77036BE5E770
:106AD00010210C4B30B5D8680022084205D00A4876
:106AE0000232C4692243C2610A000420D96801420B
:106AF00005D00121044C0243E5692943E161DA60D4
:106B000030BDC04600200240D0120020054B0120BD
:106B10001A69120604D50020034A5A60034A5A60D3
:106B20007047C0460020024023016745AB89EFCD86
:106B30008023034A002011690B4313617047C0464C
:106B40000020024070B50400FFF7D8FB01250600C5
:106B5000104B1A00D96829420FD12021D868084269
:106B600000D0D9601023D068184002D1D3685B07E9
:106B700008D5FFF7ADFF012004E0611CEAD0002C2E
:106B800001D1032070BDFFF7B9FB801B8442DFD227
:106B9000F7E7C04600200240F0B585B002920393AB
:106BA0001B4B01911A7E04000220012A2ED00122E3
:106BB00018481A76FFF7C6FF002824D12600012CBA
:106BC00002D0022C00D0042600240298039922014E
:106BD000FDF73AFB002201270D4B0F4DDA612B69BF
:106BE000019A3B432B6163009B1880B218800948CF
:106BF000FFF7A8FF2B69BB432B61002803D1E419E1
:106C0000E3B29E42E1D80022014B1A7605B0F0BDF6
:106C1000D012002050C30000002002400022064B8A
:106C2000DA61064B043219690A431A614022196974
:106C30000A431A617047C046D0120020002002406B
:106C40000022064BDA61064B023219690A431A61C7
:106C50004022586119690A431A617047D012002016
:106C600000200240F8B5214E0500337E0F000220BF
:106C7000012B0CD0012333762B681D48012B12D138
:106C8000FFF760FF002803D0012000233376F8BD12
:106C9000FFF7C4FF1648FFF755FF0421154A136993
:106CA0008B431361F1E7FFF74DFF0028ECD101237F
:106CB0005B423B606C680130AB686A68DB029B1822
:106CC0009C42E2D22000FFF7BBFF0948FFF73AFFE2
:106CD0000221084A13698B431361002801D03C60EC
:106CE000D3E780231B01E418E6E7C046D01200205A
:106CF00050C3000000200240F0B5564A0B688218CD
:106D0000541EA24189B00393002304320592039AD2
:106D1000DA4001D109B0F0BD01229A4094466446A0
:106D2000039A2240029200D192E04A680192102216
:106D3000019E9643022E0DD107240F271C40A4006C
:106D4000A740DA0892008218156ABD430F69A74070
:106D50003D431562032214005D00AC40E443076824
:106D6000013E27400497019F3A40AA40049F3A43BE
:106D70000260012E0ED8CA688668AA4026403243B7
:106D80008260624646689643019AD206D20F9A40C4
:106D900032434260C26814408A68AA401443019A90
:106DA000C460D20054D501262B4A1D009469344397
:106DB000946192699C0832400792079A274AA4007E
:106DC000A418A268944603221540AD000C32AA40D4
:106DD000674697439022D2059446002260450DD025
:106DE0001F4A94463200604508D01E4E9218B042A9
:106DF00004D01D4E0132B04200D0059AAA403A4359
:106E0000A2601A4A029C1668029D019FE443354322
:106E1000FF0301D43500254015605668029D019F8F
:106E20003543BF0301D43500254055609668029D67
:106E3000019F3543FF0201D4350025409560D56898
:106E4000029E019F2E43BF0201D425402E00D66032
:106E500001335CE700F0FFB7001002400000014082
:106E60000004004800080048000C004800040140ED
:106E7000002A01D0816170478162FCE7044B10B5A4
:106E80005A69104202D0586103F0FEFC10BDC046A2
:106E90000004014070B504000120002C14D02368C8
:106EA0000F4A1A600F4A1A6062685A60A2689A60B4
:106EB000FFF724FA05002368D868002805D119696E
:106EC000E268914208D01A6170BDFFF717FA401BC3
:106ED0002728F0D90320F7E7034A1A60F4E7C046F1
:106EE000CCCC000055550000AAAA00000368024A55
:106EF00000201A607047C046AAAA000070B50400BE
:106F00000120002C2BD0EA25FF35635DDBB2002B7E
:106F100005D1F4225200A354200004F069FF03239A
:106F20000022635523001100012660682833824245
:106F300016D10021230008000933FF338A4218D1FB
:106F40000020012123689A1C9E1D5033D187D087D1
:106F5000F08718800B4BD387631DD877615570BDC0
:106F60001A705E70D970D9601961596101321C3391
:106F7000DDE719705870D870D86018615861013118
:106F80001C33DBE700BFFFFF802103680902583391
:106F90001A8800200A431A807047F42210B5520064
:106FA000835C04000220012B09D00123A354002993
:106FB00006D1236880314C3319800020A05410BDC5
:106FC000631DD977F9E70000F7B5050048B21C2426
:106FD000002820DA7F260E40744328342C197F269F
:106FE000E370F4233140C00F60702170E2605B00F9
:106FF000E95C0220012900D1EFE00121E954E078A9
:107000002B68032814D821788A4E89005918FDF777
:107010007BF806500C4B4C430934FF34DEE70888FC
:1070200030408026B600064301E0088806400E8006
:107030002178814E8C4667468800181801883140B7
:107040007E4E374339430180A07A7B4F2178BC467E
:107050000196002866D11E00607850360700A0888F
:10706000002F2AD03288C900591889188022D200EE
:107070008918012290430880227892009A1811887A
:10708000480604D567460F406D490F4317802278A4
:107090006C4992009B181A88114020224A4001999D
:1070A00011430A001A8094E008883040C026F60098
:1070B000B9E7088830408026F9E73788C900C91940
:1070C000614F5918C9190127B843088021783088C1
:1070D000C90009185D48181809183E2A1CD950091A
:1070E000D20601D1013880B2594A8002104308808B
:1070F000227892009A181188480404D5604601400D
:107100005448014311802278534992009B181A88F1
:107110001140C0229201C1E750083A4200D001302C
:107120008002E4E7890059180A884C48454F10400E
:107130004B4A024318000A80227850300188D2005E
:10714000521880219A18C90052180121E6888E43EE
:107150001680802622780088D2009A1812183A48A1
:10716000F6011218208988431080227861789200F5
:107170009A18002932D11188314204D0604601406A
:1071800034480143118022782D4992009A181088C2
:10719000460603D56646304008431080664622788E
:1071A00092009A18108830400143118022782A49B1
:1071B00092009A1810880840C02189014140019826
:1071C00001431180227892009B181A8817400743C8
:1071D0001F80F42300205B00E854FEBD11881D4889
:1071E000314203D06646314001431180227892003B
:1071F0009A1811884E0604D566463140104E314328
:1072000011806646227892009A181188314008430E
:107210001080227892009A1811880F4001990F432C
:10722000178022780C4992009B181A880A4001990D
:107230000A4337E78F89FFFF0F0F00008080FFFFB1
:10724000C080FFFFBF8FFFFF0404000006040000A2
:107250000080FFFF80C0FFFF8FBFFFFF0F0E000009
:107260008081FFFF4AB2F0B51C230500002A31DA05
:107270007F20084043432833EB187F20D20F5A70F9
:10728000F422014019705200A95C7D38012920D0F8
:107290000121A954987A5E7829681A783B4C002815
:1072A00029D192008A181088002E17D0460604D5DE
:1072B000374E3040374E304310801B78364A9B00A3
:1072C000C9180B8813401C43F42300205B000C807A
:1072D000E854F0BD4B430933FF33CDE7460404D5F2
:1072E0002B4E30402D4E304310801B782C4A9B0093
:1072F000C9180B88E6E7802792002548FF018A1805
:10730000002E22D116883E4203D0244F06403E4331
:1073100016801A781F4E92008A181788B4467E0687
:1073200003D5664607403743178066461A789200B1
:107330008A1817883840064316801A78184E92002B
:107340008A18108830402043B6E716883E4203D0A2
:10735000124F06403E4316801A7892008A1816880B
:10736000770603D50B4F06403E4316801A780B4F25
:1073700092008A1816883040074317801A78064E04
:1073800092008A18108830402043ADE78080FFFFCC
:107390000F0F0000C080FFFFBF8FFFFF80C0FFFF07
:1073A0008FBFFFFFF0B57F242140633C27004F4390
:1073B000C7193D000026FC35FF37EA612B626E627B
:1073C000BE727972AA6993422FD99B1A2B624C43E1
:1073D0000419FF34E57C0368002D29D11D005035C8
:1073E0002E88657AED00AD19394C1C192D193E2AED
:1073F00059D95409A4B2D20601D1013CA4B2354AEC
:10740000A40214432C801C2251434018FF30427ABE
:1074100092009B181988304A00201140C022920126
:1074200051402E4A0A431A80F0BD2E621A00CEE760
:10743000A57A002D2AD11D0050352E88657A284C5A
:10744000ED00AD191C192D193E2A17D95409A4B203
:10745000D60601D1013CA4B21E4EA40234432C80B6
:107460001C264E438619FF36B47A002C23D11C000B
:10747000757A50342488ED002D19B5E75408A4B26C
:10748000D60701D50134A4B2A402E8E7012DE7D163
:107490001D00647A50352D88E4001C196419104DC4
:1074A00064192280DCE75408A4B2D20701D5013464
:1074B000A4B2A402A6E7012CA5D11C005034258853
:1074C000747AE4001C196419014D641922809AE74A
:1074D000060400000080FFFF8FBFFFFF8080FFFFDA
:1074E000020400007F230B401C2159434018FC304C
:1074F000406A80B270470000F42310B55B00C45CA2
:1075000002000220012C21D00138D054CD3B48B2DA
:10751000FF3B00281BDA7F240C40634328330124FF
:10752000D3189C707E342140C40F5C7019701368AE
:10753000114C00290FD119881048084010494140CA
:107540000C431C80F42300205B00D05410BD4B433F
:107550000933FF33E3E7890059180B88002806DA5E
:1075600008481840102343401C430C80EAE70648B3
:10757000184080235B01F6E78080FFFFBFBFFFFF5D
:1075800010100000BF8FFFFF8FBFFFFF4AB270B522
:107590001C230400002A32DA7F20084043432833AA
:1075A0000020E318D20F5A70F42298707F30014007
:1075B00019705200A15C7D3801291FD00121A1540E
:1075C0001A7820685D78920017498218002D1AD029
:1075D00015886E0604D5154E3540154E3543158079
:1075E0001B789B00C3181A88124810403022424072
:1075F00011431980F42300205B00E05470BD4B431D
:107600000933FF33CCE715886E0404D5074E3540A7
:10761000094E354315801B789B00C3181A8807480C
:107620001040C0229201E2E78080FFFF0F0F0000B0
:10763000C080FFFFBF8FFFFF80C0FFFF8FBFFFFF36
:1076400030B58024E40000198218080001335B087B
:10765000002B00D130BD4478057824022C43451A14
:10766000AC520230013BF3E7F8B57F250D401C21F9
:1076700004000800684320188263020000260127E6
:107680002932C3630664013A57701570426B934206
:107690002ED99B1AC363694361180B000F00323364
:1076A0001B7896B22837002B25D18A8D3300896B41
:1076B0002068FFF7C5FF23681A00503211883A7816
:1076C000D2009B18504A5B189B181E801C214D430A
:1076D000651928352A78236892009B1819884B4A27
:1076E0000020114030225140494A0A431A80F8BD17
:1076F000C6631A00CFE73B7820689F003F5A2931C4
:1077000009787F0645D5002937D101005031098815
:10771000DB005B183F4941185B183E2A25D9510907
:1077200089B2D20601D1013989B23B4A890211439B
:1077300019801C236B43E3181A8E1C276F43E7192B
:107740003300B96BFFF77CFF3B0029331B782168BE
:10775000002B4DD128373B789B00CB181A882F4936
:1077600011402F4A0A431A80B0E7510889B2D20764
:1077700001D5013189B28902DAE70129D9D10100A5
:1077800050310988DB00C3185B1822495B181A8046
:10779000CFE7002920D1010050310988DB005B18B8
:1077A000194941185B183E2A0ED9510989B2D206EF
:1077B00001D1013989B2184A8902114319801C2369
:1077C0006B43E318DA8DB8E7510889B2D20701D5C7
:1077D000013189B28902F1E70129F0D1010050316C
:1077E0000988DB00C3185B1807495B181A80E6E7B5
:1077F000012B00D06AE728373A7892008B181A8854
:1078000006491140074AADE702040000BF8FFFFFA1
:107810008080FFFF060400000080FFFF0F0F0000C4
:10782000C080FFFF80C0FFFF70B58025ED004019CC
:107830005C08821826000800002E07D16400091990
:107840001219DB0701D513880B7070BD451AAD5AAC
:10785000013E05702D0A45700230EDE7F0B5036872
:1078600085B00633DB8F04001BB2002B00DA61E029
:1078700023680633DA8F52050AD5DA8F864920004D
:107880000A40DA8704F0F8FA00212000FFF785FBB0
:107890002368991DCA8F520403D5CA8F7F480240BE
:1078A000CA87CA8F920403D5CA8F7D480240CA870F
:1078B000CA8FD2040FD504210233DA8F20008A4305
:1078C000DA87784ADA8704F0F5FA236876490633CE
:1078D000DA8F0A40DA8723689A1DD18F090512D5FD
:1078E000D18F724802330140D1870821D88F0143DC
:1078F000D9870421D88F0143D987D38FDB0402D4E1
:10790000200004F0C5FA23680633DA8F920506D505
:10791000DA8F674920000A40DA8704F0A6FA236864
:107920000633DA8FD20503D5DA8F62490A40DA8747
:1079300005B0F0BD02AB9F1D00233B80206803AA69
:10794000831DDB8F9BB213801BB2002B00DB8FE704
:107950000F2316881E4000D0BCE010211388194068
:107960000388002926D1544A134003800300503372
:107970001A88230028331B78DB00C0184F4B80186F
:10798000C0180388A26B9B059B0D2364D318A363C7
:10799000200004F05FFA631DDA7F002ACED0E06B8E
:1079A0000028CBD18022D97F114322684C3211802C
:1079B000D877C3E73B803A88120520D503005033BF
:1079C0001A8884235B00E35C2100DB00C3189B184A
:1079D0003B4AED319B1822001B8809329B059B0D09
:1079E000FF329361FF319288FFF71EFF226835490D
:1079F000138820000B40138004F016FA9EE73A88A3
:107A000012B2002A9ADA2F4A25001340038003009D
:107A100050331A8884235B00E35C0935DB00C3180C
:107A20009B18274AFF359B181B889B059B0DAB6154
:107A300007D0AA882969FFF7F7FE2B69AA699B1866
:107A40002B610021200004F0F9F922681C49130081
:107A500050331B88E8685118C9183E2813D94309C8
:107A60009BB2C00601D1013B9BB217489B02034366
:107A70000B801188154B1940C0239B015940144BB2
:107A80000B4313805AE743089BB2C00701D501336B
:107A90009BB29B02ECE7C046FFFBFFFFFFBFFFFF6F
:107AA000FFDFFFFF00BDFFFFFFEFFFFFFFF7FFFF5F
:107AB000FFFDFFFFFFFEFFFF0F8FFFFF020400002F
:107AC000060400008F0F00000080FFFF8FBFFFFF44
:107AD0008080FFFFB300C11801930B883B803A8878
:107AE00012B2002A3CDA734A13400B801C21714306
:107AF00061180B000200FF33DD7C50325B7A002DF1
:107B000073D11288DB00C3189B186B4A9B181D8821
:107B1000AD05AD0D07D00B00FC31FE33DA89C96924
:107B20002B00FFF781FE1C21080070432018020083
:107B3000FC32536A5B195362D3699C46AC4463467A
:107B4000D361136A002B03D09269954200D37BE086
:107B50000B007343E318FF33597A200004F06EF9E9
:107B600080223B88134200D1E8E62068B300C318A6
:107B70001A8852490A401C21714361181A800B006F
:107B8000020032331D7850320A3B002D63D11B783E
:107B90001288DB00C3189B18494A9B181B889B0559
:107BA0009B0D0B6403D08A8D896BFFF749FD22681A
:107BB0001300503318881C235E43A6193100283166
:107BC0000B78DB00D3183E4A1B189B181A88B36B3E
:107BD0009205920D32649A18F36BB2630978200013
:107BE000002B64D104F036F9A8E69D001288DB0072
:107BF0002D5AC3189B186D041CD5314A9B181D883B
:107C0000AD05AD0D07D00B00FE331A8AFC312B00F9
:107C1000C969FFF709FE1C237343E318FF335B7A3E
:107C200022689B00D3181A8826491140264A0A4325
:107C30001A8078E7204A9B181D88AD05AD0DEAD063
:107C40000B00FE335A8AE1E7FF30417A624620009A
:107C5000FFF7A8FB84E71B7812889D002D5ADB00F4
:107C6000C3189B186D0619D5154A9B181B889B05D0
:107C70009B0D0B6403D0CA8D896BFFF7E1FC1C23BD
:107C80007343E31828331B7822689B00D1180B88B4
:107C90000C4A1A400D4B13430B8088E7064A9B1889
:107CA0001B889B059B0D0B64E9D00A8EE4E7FFF768
:107CB000DBFC43E68F0F0000060400000F8FFFFF80
:107CC000020400000F0F0000C080FFFF80C0FFFF14
:107CD00030B51C240D060AD57F2529406143283183
:107CE0004118002A07D18A728B80002030BD614381
:107CF0000931FF31F4E70122CB801B0C8A720B8122
:107D0000F3E70000F0B5036885B00500DB0733D466
:107D10002B689B0700D58AE02B681B0700D5CAE0BB
:107D20002B685B0700D5EDE02B68DB061AD56A6986
:107D3000BC4C0423012A00D059E1616B02260B439D
:107D40006363636B1A436263FEF7D8FA0700636BE1
:107D5000334200D144E1F821626BAB698A43DB0016
:107D6000134363632B689B0600D567E1696A0029AA
:107D700000D0A4E1002018E00C21AA4C62680A405F
:107D8000042A0BD063680B40082B10D1C022636813
:107D90005202134080225202934208D123689B036F
:107DA000B6D56B68002BB3D1012005B0F0BD6B6870
:107DB000012B13D1802322685B0213432360FEF75B
:107DC0009DFA80260700B60223683342A0D1FEF751
:107DD00095FAC01B6428F7D90320E6E7002B16D1DB
:107DE0002368914A80261340236023688F4AB60295
:107DF00013402360FEF782FA07002368334200D164
:107E000086E7FEF77BFAC01B6428F6D9E4E7052B6A
:107E100005D180232268DB0213432360CAE723686D
:107E2000814A134023602368804A1340C6E70C222E
:107E30007C4C636813420BD063681340082B15D148
:107E4000C0226368520213408022120293420DD175
:107E500023689B0702D5EB68012BA5D1F821226886
:107E60002B698A43DB001343236055E7EA6801234B
:107E7000002A0FD02268022613432360FEF73EFA41
:107E8000070023683342E9D1FEF738FAC01B022805
:107E9000F7D9A1E7226802269A432260FEF72EFA5C
:107EA00007002368334200D136E7FEF727FAC01BEC
:107EB0000228F6D990E7EA6901235A4C002A10D02B
:107EC000626A022613436362FEF718FA0700636AC8
:107ED000334200D024E7FEF711FAC01B0228F6D97E
:107EE0007AE7626A02269A436262FEF707FA07009F
:107EF000636A334200D113E7FEF700FAC01B022881
:107F0000F6D969E780220021464C5205E3690091C9
:107F1000134208D1E3691343E361E3691340039318
:107F2000039B012300938027414E7F0033683B422F
:107F300006D0AB68012B13D1226A1343236230E0D1
:107F400033683B433360FEF7D9F9019033683B4215
:107F5000EFD1FEF7D3F9019BC01A6428F6D93BE7AD
:107F60000122002B14D1236A022793432362236A40
:107F7000033293432362FEF7C1F90600236A3B42B2
:107F800025D0FEF7BBF92B4B801B9842F6D923E78F
:107F9000052B0BD1216A013B0B432362236A1A4351
:107FA0002262FEF7ABF9022706000DE0236A934335
:107FB00004222362236A9343C0E7FEF79FF91D4B17
:107FC000801B984200D907E7236A3B42F5D0009B0B
:107FD000012B00D0A8E6E369174A1340E361A3E64A
:107FE000FEF78CF9C01B022800D8B0E6F4E6053293
:107FF00003D1626B9A436263ADE6626B0226134360
:1080000001226363636B93436363FEF777F90700B1
:10801000636B334200D1A5E6FEF770F9C01B02285E
:10802000F6D9D9E600100240FFFFFEFFFFFFFBFF7D
:108030000070004088130000FFFFFFEF0C21464C4A
:1080400062680A408A4209D063680B40082B0ED14F
:10805000C022636852021340934208D1636BDB0372
:1080600000D483E62B6A012B00D09DE67EE62B6AC6
:10807000002B11D08026636B760233436363FEF7D7
:108080003DF90700636B334200D06FE6FEF736F927
:10809000C01B0228F6D99FE6636B304A8026134046
:1080A0006363FEF72BF907007602636B334200D15E
:1080B0005CE6FEF723F9C01B0228F6D98CE60C22F9
:1080C000254C63681340082B00D16DE62368244AD1
:1080D0001340236002292FD1FEF710F980260700F4
:1080E000B6042368334221D10F22E36A93432A6BFB
:1080F0001343E362A96AEB6A62680B43194980255E
:108100000A4013436360802322685B0413432360A7
:10811000FEF7F4F80600AD0423682B4200D029E6F0
:10812000FEF7ECF8801B0228F6D955E6FEF7E6F8D4
:10813000C01B0228D5D94FE6FEF7E0F880250600DF
:10814000AD0423682B4200D114E6FEF7D7F8801B5C
:108150000228F6D940E6C04600100240FFFFFEFFAD
:10816000FFFFFFFEFF7FC2FF70B51C4C88B01022DE
:108170002100684604F038F8210004AD10221031C7
:10818000280004F031F80C22154E73681A40082AB2
:1081900008D00C2A03D0042A1ED1124800E012484D
:1081A00008B070BD0F206A46990C0140545CF26A19
:1081B0000240A95CC0228020520213404002834248
:1081C00004D10848FBF7B4FF6043E9E7934201D1CB
:1081D0000548F7E70548F5E70448E1E724C2000849
:1081E00000100240001BB700006CDC0200127A0095
:1081F000F7B501224F4C06002368019113408B42D2
:108200001FD33268930728D4D3072ED401232268C2
:1082100001991A40914200D27EE03368464C5B07D8
:1082200000D580E0FFF7A0FF6368444A1B061B0FE0
:10823000D35CD840424B18600020FEF735F8002090
:108240000AE02368019993430B432360236813409A
:10825000019A9A42D5D00120FEBDF02036494B68E4
:108260008343B06803434B60CEE77268324D012A06
:108270001AD12B689B03EED503216B688B43134304
:108280006B60FEF73BF873680700012B1CD10C22D2
:108290006B681340042BB9D0FEF730F8294BC01B94
:1082A0009842F4D90320D7E7022A03D12B689B0117
:1082B000E2D4D0E7032A03D16B6BDB03DCD4CAE73B
:1082C0002B689B07D8D4C6E7022B0BD10C226B6816
:1082D0001340082B9AD0FEF711F81A4BC01B984296
:1082E000F4D9DFE7032B11D00C226B68134200D1C5
:1082F0008CE7FEF703F8134BC01B9842F4D9D1E783
:10830000FDF7FCFF0F4BC01B9842CBD80C226B68CB
:1083100013409342F4D179E722689A43226022689D
:108320001A4298D179E76368074A1340F268134309
:10833000636077E70020024000100240E8C70008B1
:108340003802002088130000FFF8FFFF014B186877
:108350007047C04638020020F0B5036885B00500BC
:10836000DB0328D580220021444C5205E3690091AB
:10837000134208D1E3691343E361E36913400393B4
:10838000039B0123009380273D4E7F0033683B42CF
:1083900041D0C022236A920013403A4E4DD1236A45
:1083A0001E406B681E43009B2662012B03D1E369CC
:1083B000354A1340E3612B68DA0706D503202F49BD
:1083C0000A6B8243A86802430A639A0706D52B49C1
:1083D0002E480A6B0240E86802430A639A0606D5F3
:1083E000102026490A6B8243286902430A639A03D4
:1083F00006D5802021490A6B8243A86902430A639B
:1084000000205B0517D540211C4A136B8B4369691B
:108410000B4313630FE033683B433360FDF76EFF9C
:10842000019033683B42B4D1FDF768FF019BC01A4D
:108430006428F6D9032005B0F0BD69680A4093426C
:10844000ADD08023226A206A11005B0203432362BD
:10845000236A0F483140034023622162D3079ED52F
:10846000FDF74CFF07000222236A134297D1FDF764
:1084700045FF084BC01B9842F5D9DBE700100240CE
:1084800000700040FFFCFFFFFFFFFFEFFFFFFCFF5E
:10849000FFFFFEFF881300000122036A70B59343BB
:1084A0000362036A44688569723295430A6815431A
:1084B000022293438A681343144A904208D0144E10
:1084C000B04205D0134EB04202D0134EB04216D186
:1084D0000826B343CE6833430426B343904208D002
:1084E0000B4A904205D00B4A904202D00A4A904271
:1084F00005D10A4A8E6922404C69344314434A68C4
:10850000446085614263036270BDC046002C014037
:10851000004001400044014000480140FFFCFFFFD3
:1085200070B57325036A174A13400362036A4268F1
:10853000C469AC430D682C43134D2B408D682D024C
:108540002B43124DA8420ED1114D1D40CB681B028A
:108550002B43104D2B40104D4E6915408A69324314
:1085600012012A4308E00D4DA842F4D00C4DA84258
:10857000F1D00C4DA842EED042604A68C461C2639B
:10858000036270BDFFFEFFFFFFFDFFFF002C0140F7
:10859000FFF7FFFFFFFBFFFFFFCFFFFF00400140A2
:1085A0000044014000480140036A144A30B51340BA
:1085B0000362026A124C4368C56925400C682402B4
:1085C0002543104C22408C68240322430E4CA042C9
:1085D00008D00E4CA04205D00D4CA04202D00D4C4C
:1085E000A04204D10C4C23404C69A40123434360B6
:1085F0004B68C5610364026230BDC046FFEFFFFFF8
:10860000FF8CFFFFFFDFFFFF002C01400040014017
:108610000044014000480140FFBFFFFF0200022369
:10862000012100683D32137003680B430360002092
:108630001170704701220368D96800201143D96086
:1086400019680A431A60704770477047704770474F
:10865000704770470222036810B51969040011427F
:108660000ED0D96811420BD0053A1A619B690432C9
:1086700002779B0700D179E0FFF7E9FF002323771A
:10868000042223681969114210D0D96811420DD013
:10869000093A1A61073222779A69C0239B002000A9
:1086A0001A4269D0FFF7D3FF0023237708222368FB
:1086B000196911420ED0D96811420BD0113A1A61D2
:1086C000DB690D32227720009B075BD0FFF7BFFFED
:1086D00000232377102223681969114210D0D9682A
:1086E00011420DD0213A1A6119322277DA69C0237A
:1086F0009B0020001A424BD0FFF7A9FF00232377ED
:10870000012223681969114207D0D968114204D0A7
:10871000033A1A612000FFF798FF80222368196945
:10872000114208D0D968114205D0023AFF3A1A61C5
:10873000200000F0B4FA402223681969114207D0E2
:10874000D968114204D0813A1A612000FFF781FFF5
:10875000202223681969114207D0D968114204D038
:10876000413A1A61200000F099FA10BDFFF76EFF40
:108770002000FFF76DFF81E7FFF768FF2000FFF79C
:1087800067FF91E7FFF762FF2000FFF761FF9FE7B8
:10879000FFF75CFF2000FFF75BFFAFE7204A10B553
:1087A0000368904206D08024E405A04202D01D4C0C
:1087B000A0420CD17024A3434C682343904212D0B2
:1087C0008024E405A0420ED0164CA0420BD0164CDB
:1087D000A04208D0154CA04205D0154CA04202D0B2
:1087E000144CA04203D1144C2340CC682343802472
:1087F000A3434C69234303608B68C3620B688362A5
:10880000904208D0094B984205D0094B984202D0BB
:10881000084B984201D10B6903630123436110BDEA
:10882000002C0140000400400020004000400140B6
:108830000044014000480140FFFCFFFF70B5040008
:108840000120002C14D025003D352B78DBB2002B05
:1088500005D122003C321370200003F031F80223CE
:1088600020682B70211DFFF799FF012300202B703A
:1088700070BD70B504000120002C14D025003D35DA
:108880002B78DBB2002B05D122003C321370200084
:10889000FFF7DAFE022320682B70211DFFF77EFF11
:1088A000012300202B7070BD1022036A70B5934322
:1088B0000362026A164D436884692C400D682D02DC
:1088C0002C432025AA438D682D012A43114DA8422F
:1088D0000FD18025AA431500CA6812012A434025FA
:1088E000AA430D4D4E691D408B6933439B002B43BA
:1088F00008E00A4DA842F4D0094DA842F1D0094D34
:10890000A842EED043604B6884618363026270BD0D
:10891000FF8CFFFF002C0140FFF3FFFF00400140F0
:108920000044014000480140F8B5060002233C36EF
:108930000D00317804001800012925D027000121FD
:108940003D3731703B700C2A1AD81000FBF7DCFB66
:10895000071818181D1818182F1818184100290082
:108960002068FFF799FD0822236899690A430421CA
:108970009A619A698A439A619A6929690A439A6154
:10898000012300203B703070F8BD29002068FFF7FC
:108990008BFF80222368120199690A439A619A69C0
:1089A00015490A409A612A6999691202E6E7290085
:1089B0002068FFF7B5FD08222368D9690A4304211E
:1089C000DA61DA698A43DA61DA6929690A43DA61C4
:1089D000D6E729002068FFF7E7FD8022236812010F
:1089E000D9690A43DA61DA6903490A40DA612A6916
:1089F000D9691202EAE7C046FFFBFFFF30B5846881
:108A0000034D0A431B022C4013432343836030BDB4
:108A1000FF00FFFFF8B5050002233C352A7804006B
:108A20001800012A19D02600012720683D362F7032
:108A3000337083684F4A134083600B68402B00D12A
:108A40006FE016D8102B00D187E007D8002B00D19B
:108A50007DE00123002033702870F8BD202B00D169
:108A600081E0302BF5D17022836893431A003723BD
:108A700055E0702B33D01BD8502B3BD0602BE8D166
:108A800010244B68CA68016A3B4FA14301628469A4
:108A900012033C402243A024016A82617022A14358
:108AA0001B010B430362836893431A00672336E07C
:108AB0008022520193420DD0802292019342C8D16C
:108AC000CB684A688968FFF799FF80232268DB0139
:108AD00091680CE00722836893438360B9E7CB6811
:108AE0004A688968FFF78AFF7721226893680B43F9
:108AF0009360AEE74A68CB68016A046A1B01BC4315
:108B0000F02704628469BC4323430A24A1430A4337
:108B1000836102627022836893431A0057231343D0
:108B2000DBE74A68CB68016A046A1B01BC43F02793
:108B300004628469BC4323430A24A1430A4383613A
:108B400002627022836893431A004723E7E770228A
:108B5000836893431A000723E1E7702283689343F5
:108B60001A001723DBE77022836893431A00272338
:108B7000D5E7C0468800FFFFFF0FFFFF10B50124B7
:108B80008C408A40036AA3430362036A1A43026269
:108B900010BD000010B5040001220068FFF7EEFFD1
:108BA00023680B4A934208D00A4A934205D00A4AE6
:108BB000934202D0094A934204D18022596C120296
:108BC0000A435A640122196800200A431A6010BD42
:108BD000002C014000400140004401400048014099
:108BE00030B504003C34227803000220012A17D05B
:108BF0001D001B683D3528705A686E3082435A60EC
:108C00005A6808684968024380205A609A6882431B
:108C10009A609A6800200A439A6001232B702070A2
:108C200030BD000030B504003C342378020002203F
:108C3000012B24D015003D352870114BC8681268EF
:108C40000340886803430F480340486803430E48C5
:108C50000340086803430D480340086903430C4878
:108C600003404869896903430A4803400A480B43A3
:108C700003400B435364002001232B70207030BD50
:108C8000FFFCFFFFFFFBFFFFFFF7FFFFFFEFFFFF13
:108C9000FFDFFFFFFFBFFFFFFF7FFFFF7047704752
:108CA000002370B51A000F2101240E009D00AE4074
:108CB000304202D025009D402A430133082BF4D1D5
:108CC000100070BD70B504000120002C40D02600BB
:108CD0003C363378DBB2002B02D122003D321370D8
:108CE00002232000337002F047FE01232568A168AB
:108CF0002B6063682A680B4361690B43A1690B43CE
:108D0000E1690B43616A0B43A16A0B431343226978
:108D1000520413432B60E368012B04D180232A689B
:108D20005B0213432B60206B636BA16B03431A0040
:108D30000A43D2432A61AB622962FFF7B1FF0322E3
:108D400028636B68002093436B600123AA60337033
:108D500070BD704770470122036810B5D968114291
:108D600000D09A6002000221DC683C320C4205D03F
:108D7000996003231370FFF7EDFF10BD01231370FB
:108D8000FFF7E7FFF9E7000010B5084B084C094969
:108D900060601868FBF7CCF9FA239B005843482120
:108DA000FBF7C6F92061002010BDC0463802002044
:108DB000F012002040420F000223F0B589B002916A
:108DC0000392019300280BD10700414B01905C688E
:108DD0006368059323680693A289FBB2934202D38A
:108DE000019809B0F0BD059A7B00D55A0C231822D2
:108DF0005D43A3685B1919780A40182A1DD1173AF8
:108E00000A431A700C237B43069AD05C00F0B8F832
:108E10000600A368079058194389468104932D4B97
:108E20001A88B2420BD9062302789A43023B1343B5
:108E3000037000230381023301930137CCE75B8881
:108E4000B34202D203780622F1E700F0ADF8002821
:108E500029D0029B002B06D03100049898470600C9
:108E6000A3685B195881A36831005B19988800F0EA
:108E700093F8A36804905E1900F094F80323062287
:108E8000034030785B0090431843039AA368307026
:108E90005D19002A03D0049890472881CDE76B46DE
:108EA0001B8A2B81C9E7A36807995E19B08800F077
:108EB00073F8A36830815D1900F074F8032306226B
:108EC000034028785B00904318432870B5E7C046FC
:108ED000F01200204C020020F7B5022300280FD129
:108EE000144B5A681468566811691872124B9962CB
:108EF00051691963918901910199884202D3002334
:108F00001800FEBD0C254100715A97686943C95D80
:108F1000C906890F032909D01F6BA568AF431F63DA
:108F2000002903D1996A6568A94399620C3401301C
:108F3000E2E7C046F01200200040024070B5032571
:108F4000074CA3682B43A360064B186900F032F866
:108F50006368AB436360022322681343236070BDE0
:108F600000400240F01200200120044BDA68024267
:108F700002D0D868022318407047C0460040024023
:108F80000023072803D8034B8000C018436898B219
:108F90007047C04630400240401A00B27047401A45
:108FA00080B2704700207047012070470020704752
:108FB0000120704780B584B000AF78607B68FB60AB
:108FC00002E0FB68013BFB60FB68002BF9D1C04667
:108FD000BD4604B080BD7047F0B5002407002600F0
:108FE0000125036887B00833039105920293049426
:108FF00001940298BB88019A083893420CD8002D3E
:1090000007D06B46059A9B8AFF2A00D9FF239BB2A3
:109010000393039807B0F0BD00F0D4F8194AD36861
:109020001B78103B012B07D853691A681278022A63
:1090300008D19C6801230493002C21D00022049BBA
:10904000934207D8019B0133DBB20193029B0833A3
:109050000293CEE70821635E002B06D00ADA0023D4
:109060009E4202DC01262B00764201320C34D2B241
:109070001D00E4E700239E42F7DB2B000126F4E706
:109080000394C6E7F0120020F0B50B1C87B0070070
:10909000FF2900D9FF2300259BB20493FF232C0056
:1090A000049A0395534001339BB205933B680195A5
:1090B000083302930298BB88019A0838934201D87A
:1090C00007B0F0BD00F07EF81D4AD3681B78103B56
:1090D000012B08D853691A681278022A09D19C68B2
:1090E0000123184D0393002CEAD00026039BB342C2
:1090F00007D8019B0133DBB20193029B0833029333
:10910000D8E70823E15EA088FFF749FFA288A3798A
:1091100012029B18059A00025343049A5043C01848
:10912000030A000CA080A3712000FFF73FFF012875
:1091300001D10020A84701360C34F6B2D6E7C0466C
:10914000F0120020659300083F2370B5C288040028
:109150001340012B2ED1857A002D0CD10221174A04
:1091600010688843106016480088A0811068014389
:109170001160A3726572A37A002B0CD0637A002B66
:109180000DD12100FA200C31400000F09DF800289C
:1091900001D101236372637A0120002B09D01422CC
:1091A0000A212000FFF718FF01002000FFF76CFFE5
:1091B000002070BD002383724372DCE710E000E002
:1091C000F01200200378044A103BD060012B01D834
:1091D000436853617047C046F0120020F7B5002481
:1091E0000500066804720194AB88019A934201D885
:1091F000EC80F7BD3000FFF7E5FF3378102B11D17D
:109200000B4F7B691B691B68984740207A6913687C
:109210009978014201D0012129721B78D268DB00C4
:109220009B5C1C43019B08360133DBB20193DBE7F7
:10923000F0120020F7B500240500066804720194BE
:10924000AB88019A934201D8EC80F7BD3000FFF75C
:10925000B9FF3378102B11D10B4F7B691B695B6809
:10926000984740207A6913689978014201D001211A
:1092700029721B78D268DB009B5C1C43019B08367B
:109280000133DBB20193DBE7F01200200B4A0C49FB
:1092900013880C48013313800B8801339BB20B8079
:1092A000834207D9937800200133DBB23F2B02D8E9
:1092B0009370088070479070FBE7C046F012002062
:1092C000BC020020E7030000022330B50F4C2268E7
:1092D0009A4322602200002804D1180022681A4311
:1092E000226030BD0A4B02251C880B880B88E31ACC
:1092F0009BB2834205D30C80136800201D43156088
:10930000EFE7136801201D431560EAE710E000E075
:10931000F012002070B5124D6B699A6818681178C8
:10932000C90702D40178132916D101241178A14369
:109330001170EA6804781278102A04D1DB68E20020
:109340009B185B6898476B6940221B68187899786E
:10935000A04202D19143997070BD0A439A70FBE715
:10936000F01200200022114B30B559690B689C782F
:109370001A70403222439A708A6818211478214367
:1093800011700B490B4C8D88042D05D0102D0BD07E
:1093900008258D80053D00E002252580898840183C
:1093A00058700023938030BD0425F6E7F0120020AA
:1093B0004C020020BE0200200A2203210A4B10B5F5
:1093C0005B6900205B681A70053A5A7087329A70A0
:1093D000143ADA701A71763A59719A71DA711A720E
:1093E0005972FFF7BFFF10BDF0120020064B00209E
:1093F000DA681278102A05D15A691368D2681B7886
:10940000DB00985C7047C046F01200200C4B5A6994
:10941000916813680878400702D506221A707047D1
:1094200052680820095E52789142F6DC5A78002A88
:1094300001D0013A5A705A78002AF0D10232EDE791
:10944000F01200200F4B5A699168136808784007A2
:1094500002D50A221A70704752680820095ED07837
:109460008142F6DC5278914201DD0622F2E75A7819
:10947000002A01D0013A5A705A78002AEBD1023200
:10948000E8E7C046F01200200F4B5A699168136854
:109490000878400702D50C221A70704752680820DD
:1094A000095ED0788142F6DC5278914201DD0622D5
:1094B000F2E75A78002A01D0013A5A705A78002A05
:1094C000EBD10232E8E7C046F01200201C4B10B589
:1094D0005A69916853680878400709D512685B7A21
:1094E0005370002B02D10D33137027E00F23FBE7DD
:1094F0000820085E9978884208DB1268DB7953708F
:10950000002B01D10A33EFE70B23EDE719788842EE
:1095100008DB12689B795370002B01D10633E3E717
:109520000723E1E719794942884207DC5879126834
:10953000012350700028D7D1FFF714FF10BDC0469B
:10954000F01200200E4B10B55A6902219068136882
:109550000478640701D5197010E052680824005F90
:10956000127952429042F6DC5A78002A01D0013A30
:109570005A705878002801D1FFF7F4FE10BDC0469C
:10958000F0120020022170B51F4C636998680278C0
:1095900052080A40196809D05B685B7A4B70002B4F
:1095A00001D10D2300E00E230B7070BD174B4E78D8
:1095B0001B7945899E421ED12900FFF7F9FC63699A
:1095C0009B68002815D09D80616908684378002B4E
:1095D00001D0013B43704278002AE6D18B680C4CE5
:1095E000998824889A7121411A81998002230370F5
:1095F000DBE79880D9E78388EB189BB29D4201D9BD
:109600008280CEE78380DFE7F01200204C0200204A
:10961000BE020020134B10B55A69022190681368EE
:109620000478640701D519700BE052680824005FC4
:109630009478A04208DBD2795A70002A02D10A320B
:109640001A7010BD0B22FBE712789042EBDB5A78C0
:10965000002A01D0013A5A705A78002AF1D1063214
:10966000EEE7C046F0120020124B5A699168136869
:109670000878400702D50A221A70704752680820FD
:10968000095ED0788142F6DC5078814209DD5A7853
:10969000002A01D0013A5A705A78002AEDD10632D8
:1096A000EAE7127A5A70002A01D10232E4E7042272
:1096B000E2E7C046F0120020124B5A699168136825
:1096C0000878400702D50C221A70704752680820AB
:1096D000095ED0788142F6DC5078814209DD5A7803
:1096E000002A01D0013A5A705A78002AEDD1063288
:1096F000EAE7127A5A70002A01D10232E4E7052221
:10970000E2E7C046F0120020154B5A699168536891
:109710000878400709D512685B7A5370002B02D194
:109720000D33137070471023FBE70820095E98780B
:10973000814208DB1268DB795370002B01D10A33B8
:10974000EFE70B23EDE758788142EBDC12681B7AD8
:109750005370002B01D10233E3E70323E1E7C04656
:10976000F0120020134B10B55A690221906813685B
:109770000478640701D519700FE052680824005F6F
:109780009478A0420ADB5A78002A01D0013A5A7034
:109790005A78002A01D10A321A7010BD1478A042FA
:1097A000E9DB92795A70002A01D10632F4E70722E8
:1097B000F2E7C046F0120020144B5B6999685A68C2
:1097C0000878400709D51B68527A5A70002A02D1DE
:1097D0000D321A7070471122FBE70820095ED0781D
:1097E0008142F7DC50781B68814207DD92795A701C
:1097F000002A01D10632ECE70822EAE7127A5A7011
:10980000002A01D10232E4E70422E2E7F01200204C
:10981000144B5B6999685A680878400709D51B683A
:10982000527A5A70002A02D10D321A7070471222F1
:10983000FBE70820095ED0788142F7DC50781B688E
:10984000814207DD92795A70002A01D10632ECE795
:109850000922EAE7127A5A70002A01D10232E4E7BB
:109860000522E2E7F01200201A4B13B55C69A368E9
:109870001B785B070BD523685A78002A01D0013A80
:109880005A705A78002A01D10D321A7013BDFFF7B1
:10989000ADFD6B465F21073318701A780A401A70C5
:1098A00018780138072811D8FAF72EFC0407100A97
:1098B0001010100D23680222E7E723680622E4E770
:1098C00023680A22E1E723680C22DEE70020FFF785
:1098D00049FDDBE7F012002086239B00C3580220DD
:1098E000002B03D085220020920098507047000082
:1098F00086239B0070B5C4580433C358002B0BD08B
:109900008025AD00605DFF2806D0044A9B68A25CFC
:1099100021009847FF236355002070BD010200001D
:109920004323038000487047F8000020432303804E
:10993000004870473C0100204323038000487047E3
:109940008C0100200A23038000487047800100201A
:1099500070B58626B6000400855902F097FB832374
:109960009B00E850A3590220002B0AD083238122B8
:109970009B00E9181033E3589200DB68A858984719
:10998000002070BD60220B7870B51A4004000D00F5
:10999000002A28D0202A1ED1CA884878002A1CD044
:1099A00086215BB289006658002B0BDA87239B0067
:1099B000E35831009B6898473100EA88200000F0A6
:1099C000F4FB08E080239B00F0540A4B3100F25472
:1099D000200000F000FC002070BD87239B00E358AE
:1099E0009B689847F7E74B780A2BF4D1012202498C
:1099F000E4E7C04601020000C002002070B5040088
:109A00008625812102F0CEFA0121200002F0CAFA57
:109A1000AD008221200002F0C5FA6359002B09D065
:109A200087239B00E3585B689847605902F03AFB34
:109A300000236351002070BDF8B5037C0400002BA7
:109A400033D1802302229B00812102F099FA8023E6
:109A50009B00872502220121200002F091FAAD002F
:109A6000082303228221200002F08AFA8627280098
:109A700002F014FBBF000600E0510120002E13D0BD
:109A8000635900251B689847852381229B00F55068
:109A9000F551277C9200AF420ED1143BB258012100
:109AA000200002F0E3FA3800F8BD402302228121B1
:109AB00002F066FA4023CCE74023B258012120008F
:109AC00002F0D4FA2800EFE70223002903D087230D
:109AD0009B00C15000231800704786239B00C35889
